:020000040800F2
:100000004009002055020008ED400008F73C0008B8
:10001000E9400008BD200008654900080000000014
:10002000000000000000000000000000274200085F
:10003000C1200008000000002542000829420008F5
:100040006F0200086F0200086F0200086F020008CC
:100050006F0200086F0200086F0200086F020008BC
:100060006F0200086F0200086F0200086F020008AC
:100070006F0200086F0200086F0200086F0200089C
:100080006F0200086F0200086F0200086F0200088C
:100090006F0200086F0200086F0200086F0200087C
:1000A000D942000809430008F9420008E942000863
:1000B0001943000829430008394300086F0200086B
:1000C0006F0200086F0200086F0200086F0200084C
:1000D0006F0200086F020008354900084549000812
:1000E0006F0200086F0200086F0200086F0200082C
:1000F0006F0200086F0200086F0200086F0200081C
:100100006F0200086F0200086F0200086F0200080B
:100110006F0200086F0200086F0200086F020008FB
:100120006F0200086F0200086F0200086F020008EB
:100130006F0200086F0200086F0200086F020008DB
:100140006F0200086F0200086F0200086F020008CB
:100150006F0200086F0200086F020008554900088E
:100160006F0200086F0200086F0200086F020008AB
:100170006F0200086F0200086F0200080000000014
:100180006F020008C720000800F002F800F052F8E3
:100190000AA090E8000C82448344AAF10107DA45E2
:1001A00001D100F047F8AFF2090EBAE80F0013F0E2
:1001B000010F18BFFB1A43F0010318474452000017
:1001C00064520000103A24BF78C878C1FAD85207A8
:1001D00024BF30C830C144BF04680C6070470000C1
:1001E0000023002400250026103A28BF78C1FBD840
:1001F000520728BF30C148BF0B607047662905F021
:100200002980632900F0E783002070471FB505F0BF
:1002100014F800F0C3F904000020002104F07EFD72
:10022000401C60600020002104F08EFDE0601FBDD6
:1002300010B510BD00F0D8FD1146FFF7E7FF04F040
:1002400049FD00F02AFE03B4FFF7F2FF03BC01F002
:10025000ADF800000948804709480047FEE7FEE77F
:10026000FEE7FEE7FEE7FEE7FEE7FEE7FEE7FEE766
:1002700004480549054A064B70470000C54200087E
:1002800089010008400300204009002040050020AB
:100290004005002010B500F081F9001D10BD00BF21
:1002A0007D4A000053EA020C00F069802DE9F04B12
:1002B0004FF00006002B1FBFB3FA83F503FA05F4D5
:1002C00024FA05F65E4012BF1643B2FA82F502FA2E
:1002D00005F4C5F120051EBF22FA05FC44EA0C0412
:1002E000203556EA044C4FEA144418BF641C4FF002
:1002F00000084FF00009904271EB030C39D300293C
:1003000019BFB1FA81F701FA07F6B0FA80F700FADF
:1003100007F6C7F120071EBF20FA07FC46EA0C06C5
:100320002037B6FBF4FCA7EB0507103F07F01F0BC7
:10033000CBF120060CFA0BFB2CFA06F644BFB346B1
:100340000026202FA4BF5E464FF0000B5BEA060C90
:1003500008BF4FF0010B19EB0B09ABFB027C48EB1C
:100360000608C01B06FB02CC0BFB03CC71EB0C0197
:10037000C1E70B46024641464846BDE8F08B13B53F
:100380004FF000004FF00001AFF30080BDE81C40CB
:10039000704700000FB4044910B503AA029800F09A
:1003A00027FB10BC5DF814FB000000202DE9F04194
:1003B0000E460446002020622046E168884730B39C
:1003C000252805D0D4E901219047206A401CF2E796
:1003D000E168204600278847050018D0A5F14100B4
:1003E000192802D820354FF40067324629462046A6
:1003F0002760FFF703FF40B1012804D0F61D26F067
:1004000007060836D8E7361DD6E72846DAE7206A19
:10041000BDE8F08170B50C460546012A05D0287864
:10042000800600D5EA69002302E0012305E05B1C99
:10043000934202D2E05C0028F9D1A869E618C01AFC
:10044000A861286A184428622846AFF3008004E0B7
:10045000D5E9012114F8010B9047B442F8D328469E
:10046000AFF3008070BD401ECAB210F8011F8A426F
:1004700002D00029F9D100207047032A40F23080D1
:1004800010F0030C00F0158011F8013BBCF1020FD5
:10049000624498BF11F801CB00F8013B38BF11F856
:1004A000013BA2F1040298BF00F801CB38BF00F86D
:1004B000013B11F0030300F0BA82083AC0F0088053
:1004C00051F8043B083A51F804CBA0E80810F5E7CE
:1004D000121D5CBF51F8043B40F8043BAFF30080B1
:1004E000D20724BF11F8013B11F801CB48BF11F826
:1004F000012B24BF00F8013B00F801CB48BF00F8F6
:10050000012B70474FF000020429C0F0128010F058
:10051000030C00F01B80CCF1040CBCF1020F18BFDF
:1005200000F8012BA8BF20F8022BA1EB0C0100F072
:100530000DB85FEAC17C24BF00F8012B00F8012B45
:1005400048BF00F8012B70474FF0000200B513467A
:1005500094469646203922BFA0E80C50A0E80C50E3
:10056000B1F12001BFF4F7AF090728BFA0E80C5094
:1005700048BF0CC05DF804EB890028BF40F8042B8D
:1005800008BF704748BF20F8022B11F0804F18BFFA
:1005900000F8012B7047704770477047004870475C
:1005A0000003002070472DE9FF4F0C461E464FF018
:1005B000FF378BB0D2E90001DDF860800A908A46EF
:1005C000C1F30A5505B93D46002108464FF0000029
:1005D000BAF1000F00F4400005DA00EB80004FF4A0
:1005E000400101EA50004FEA9059B9F1010F00DDD6
:1005F000B9460A9850EA4A000ED044F61050A5F2C7
:10060000FF3545432F14B8F1000F1ED07542291E47
:100610001EDDC9F100021CE0B8F1010F4FF000002F
:1006200001D0302103E0F24305E02154401CB042E8
:10063000FBDB30460022002121540B99C1F80880D1
:10064000C1E900200FB0BDE8F08FBD1B6D1CDEE7D7
:100650004A4600DA694206A800F010FB06AB93E8B0
:10066000070003AB83E8070050460A9901F0F1F850
:100670008DE80700A0F500501F3800900398002D6A
:100680000ADD42F21F014A460844002303A90390F1
:10069000684601F09DFB09E0A0F500504A461F386E
:1006A000002303A90390684601F0BCFB8DE8070016
:1006B0000004000C03D04FF0FF30410800E010466A
:1006C000B8F1000F03D00022009215461EE0751EFF
:1006D00005D400F0E3F9303262556D1EF9D5B3460A
:1006E0000122084302D000227F1C04E02078302839
:1006F00001D100227F1E002A099784D01DE0112D10
:1007000007DA00F0CBF9303262556D1C50EA010275
:10071000F5D1084302D00098C8B10EE00021681E50
:1007200005E0235C625C63542254401E491C8142F4
:10073000F7DBAB46A81B401E0990002004F80B0015
:100740000B98099AC0F80880C0E9002B7AE71126B7
:100750004FF0000857E72DE9F04F88460446D21DB8
:1007600022F0070191B0D1E90001CDE90A0104F0BE
:10077000FBF802460B98C00F01D02D2007E020683F
:10078000810701D52B2002E0202101EAC000032AC5
:10079000099001D0072A05DB03464146204600F0B8
:1007A000DBF90BE12078800601D5E06900E0062046
:1007B000B8F1650F814606D0B8F1660F18D0B8F1D0
:1007C000670F70D131E00020B9F1110F009001DB0B
:1007D000112301E009F101030AAA01A90CA8FFF7FE
:1007E000E2FEDDE90C70002609F10105834647E0D1
:1007F00001204B4600904FF000470AAA01A90CA81F
:10080000FFF7D1FEDDE90DB00C995D46002610B969
:1008100009F101000D18B9EB050003D4C0F1FF3652
:1008200009F10105A5EB09002BE0B9F1010F01DA8F
:100830004FF001090020B9F1110F0090484601DD89
:10084000112300E003460AAA01A90CA8FFF7ABFE9A
:10085000DDE90C704D4600268346207800070AD457
:10086000AB4500DA5D4601A8012D04DD411911F800
:10087000011C302907D04F4502DA17F1040F04DAC2
:10088000012082460FE06D1EEEE7002F02DCED1B1B
:100890003E4403E0781CA84200DD7D1CB81B00F13B
:1008A000010A4FF000472078000703D4AA4501DB76
:1008B0004FF0FF3A0021B7F1004F0DF143088DF8DA
:1008C000431024D002202B23002F01DA7F422D2356
:1008D0000A21021EA0F1010000DC5FB197FBF1FCD0
:1008E00097FBF1F201FB1C7C17460CF1300C08F869
:1008F00001CDEEE7A8F1010003702188090501D5BB
:10090000452100E06521A0F1010800F8011C0998CB
:100910000FA9A1EB0807FF1D00B10120411901EB50
:10092000EA70A1693844081A401EA0612078C00608
:1009300002D42046AFF30080099828B1D4E9012100
:100940009047206A401C20622078C00622D52046AD
:10095000AFF300801EE0002E04DBB34502DD01A8EA
:10096000805D00E03020D4E901219047206A401CDE
:100970002062761CAAF101005FEA000A0AD1FFF7A3
:100980000DFEC0680168405CD4E901219047206AEF
:10099000401C2062281EA5F10105DCDC07E0D4E93B
:1009A000012118F8010B9047206A401C2062381E74
:1009B000A7F10107F3DC2046AFF30080032011B05C
:1009C00041E610B5436913B1AFF3008001E0FFF7D2
:1009D00021FD012010BD127800F124010A700022CF
:1009E0004A700122EDE711684FF0FF32E9E700009D
:1009F000074B70B50D467B4400F09BF80446284633
:100A000000F0AEF910B14FF0FF3070BD204670BD60
:100A1000334200007CB5054600236846CDE900332B
:100A200000F0F8F86946284604F0E6F87CBD10B5F9
:100A3000203AC0F00B80B1E81850203AA0E81850D6
:100A4000B1E81850A0E81850BFF4F5AF5FEA027C97
:100A500024BFB1E81850A0E8185044BF18C918C006
:100A6000BDE810405FEA827C24BF51F8043B40F8A7
:100A7000043B08BF7047D20728BF31F8023B48BF8C
:100A800011F8012B28BF20F8023B48BF00F8012BCA
:100A90007047000000487047E002002030B5B0F118
:100AA0000A024FEA900E71F100034EEA817EB0EB2C
:100AB0000E0061EB91014FEA101E4EEA017E10EB31
:100AC0000E0041EB11114FEA102E4EEA016E10EBB1
:100AD0000E0041EB11214FEA104E4EEA014E10EB91
:100AE0000E0041EB1141401841F100014FEAD000E6
:100AF00040EA41704FEAD10110EB80054FEA8104D2
:100B000044EA907444EB01046D1944EB0404521B55
:100B1000A3414FF0000348BF0A3200D530BD401C4E
:100B200041F1000130BD000001694A1C02610878F2
:100B3000704700B58FB0CDE901310021059105491D
:100B40007944CDE9031011466846FFF72FFC0FB03A
:100B500000BD0000E5FFFFFF2DE9F0411F46044600
:100B600003260168072A01F4006004DB08B116A51A
:100B700005E016A503E008B115A500E015A521F0D4
:100B800010002060A069C01EA0610FB1401EA061CE
:100B90002046AFF300804FB1D4E901213846904799
:100BA000206A401C2062C01C206206E0206AFAE72E
:100BB000D4E9012115F8010B9047761EF8D22046A2
:100BC000AFF30080BDE8F0814E414E006E616E00D3
:100BD000494E4600696E66000FB4002300B589B027
:100BE0000CA900910B99CB60214B7B440693214BC0
:100BF0007B44079304236FF00042CDE901321E4A83
:100C00007A446B4608920246002004F085FB09B046
:100C10005DF814FB70B506464FF0FF3015460C46E4
:100C2000324686B00091CDE901016946002004906A
:100C300004A8FFF7D1FF02460498211825B108B196
:100C4000084600E020462860049800280DD0002ABD
:100C500002DD0098884208D03246081B694600949D
:100C6000CDE9010404A8FFF7B7FF06B070BD00008E
:100C70006D02000085020000450200002DE9F047EA
:100C8000814616468AB0354878440DC88DE80D0077
:100C900032487844801C03AC0DC884E80D0041F64E
:100CA0009B300844372190FBF1F290FBF1F5A5F160
:100CB000800501FB12041B3C02D56442012000E0C8
:100CC0000020DFF898A080460027FA44AAF1BE0A67
:100CD0000EE0E0070AD03246684607EB47010123E1
:100CE0000AEB810101F09EF88DE8070064107F1C7B
:100CF000002CEED1194F7F44AE3F19E0E80715D024
:100D000007EB04100DF1180A90E80E008AE80E00B7
:100D1000C068F04201D1981908903246012306A913
:100D200003A801F07FF803AB83E807006D10641C93
:100D3000002DE3D14FF0010332466946B8F1000FB0
:100D400003A802D001F044F801E001F06BF8C9E912
:100D50000001C9F808200AB0BDE8F0875C47000030
:100D6000007B00F0800070474FF0013C50F8042BEE
:100D700051F8043B9A4221D1A2EB0C03934313EAAE
:100D8000CC1317D150F8042B51F8043B9A4215D1DB
:100D9000A2EB0C03934313EACC130BD150F8042BB2
:100DA00051F8043B9A4209D1A2EB0C03934313EA96
:100DB000CC13DBD04FF00000704700BFD01A01BA4F
:100DC000B1FA81F101F0180122FA01F0CB40C1F132
:100DD0002001DBB2C0B2C01A2CFA01F3D11A914340
:100DE00011EAC311E6D170477546FFF753FEAE46D0
:100DF00005006946534620F00700854618B020B527
:100E0000FFF736FABDE820404FF000064FF000072C
:100E10004FF000084FF0000B21F00701AC46ACE8A2
:100E2000C009ACE8C009ACE8C009ACE8C0098D460F
:100E3000704710B500F03AF8006810BD10B50446D0
:100E400000F034F8046010BD10B50446FFF722FA34
:100E50000068005D00F0010010BD426842B1016809
:100E600011F8013B23B1521EC0E900121846704729
:100E70000121C160881E704742685AB1C368016889
:100E800043B983688B4205D0491E521CC0E9001249
:100E9000002070474FF0FF30704710B50446AFF3A5
:100EA00000802046BDE81040FFF7CDB900487047EC
:100EB000E00200202DE9FF4F06468BB00878FF289E
:100EC00006D0491C2D2805D000244FF0000908E069
:100ED00000200CE00124F8E709EB8903491C00EB32
:100EE00043090878FF28F7D114B1C9F10000814601
:100EF000107800252C46AA4629462D2801D02B28FB
:100F000004D1521C2D2813D0002082468B46107825
:100F1000FF280FD04FF0000C0A21521CA5FB0178CE
:100F200004FB018105FB0C11C5194BEB0104EEE735
:100F30000120EAE7002108464FF00000BAF1000F57
:100F400002D000EB80004008C0F38157012F01DD83
:100F50004FF0FF370E9955EA040009EB01080BD05A
:100F60004FF0020918F5FA7F16DA4FEACA70002F1F
:100F7000706008DD012007E04FEACA70C6E900B0E2
:100F80000FB0BDE8F08F00203060FFF78FFFC0F892
:100F900000901821084616E0B8F5FA7F18DD002FFA
:100FA00002DAF748784401E0F6487844D0E90010C6
:100FB000C6E9001040EACA707060FFF777FFC0F81A
:100FC0000090142108460FB0BDE8F04F04F03FB97F
:100FD000002108464FF00000B8F10001099002DA44
:100FE000C7F1000200E03A4601DAC8F1000106A8A4
:100FF000FFF744FE06AB93E8070003AB83E8070066
:1010000044F23E005BEA04010090584604D144F2E9
:101010001E012C465D460091210C0904014306D1B6
:101020000099240444EA15442D041039009104F079
:101030007F41014306D10099240244EA15642D0240
:101040000839009104F07041014306D10099240150
:1010500044EA15742D01091F009104F04041014339
:1010600006D10099A40044EA9574AD00891E009150
:1010700004F00041084304D100986D196441401EFA
:1010800000904FF001033A466846B8F1000FCDE9F1
:10109000014503A902DD00F0DAFE01E000F0ADFE3B
:1010A000BAF1000F04460D4601D084F0004400213F
:1010B00008464FF00000099940F2FF77484010F0D1
:1010C0000C0F07D124F00040284303D0C4F30A508A
:1010D000B84212D1FFF7EAFEC0F80090C4F30A50FC
:1010E000B8420AD1A8487844D0E90010C6E90010F7
:1010F00004F000410843706042E7C6E900543FE74E
:101100002DE9FF4F1F464FF0000A4FF0FF384546CC
:1011100091B0D7E90146CDF83CA0FFF73FFAC0688F
:101120000168405C1090B96912986D1C8847396A53
:10113000814688470028F6D1B9F1FF3F0AD0002E3A
:1011400024F4D06411DDB9F12B0F08D0B9F12D0FC3
:101150000BD102E0404615B013E744F48064B9694E
:1011600012986D1C8847761E8146600504A901D53A
:101170002D2000E02B20002E01F1010B0DF1300895
:101180008DF810003FDDB9F1690F08D0B9F1490FB2
:1011900005D0B9F16E0F02D0B9F14E0F1CD13B460C
:1011A00001A8009580E85002DDE912126FF00200FC
:1011B00004F0B6F8C11CCED10EE0B96912986D1CCE
:1011C000884781461398761E44F4007405600F9892
:1011D000401C002E0F9016DDB9F1300FEDD0B9F1A3
:1011E000780F02D0B9F1580F0DD10F9801280AD10C
:1011F0003B46CDE90054DDE91212001F029604F0CF
:101200008DF8C11CA7D1109989453ED144F08004C6
:1012100006E01399681CAAF1010A44F400740860FE
:10122000B9696D1C1298761E884730288146F0D027
:101230002BE01099894505D1200603D4761E44F091
:10124000800418E0484603F0EAFC08B3761E0DF16E
:1012500023018B4544F4007408D2A9F130000BF847
:10126000010B200607D5AAF1010003E0200602D4F5
:101270000AF101008246A00502D51399681C086096
:10128000B96912986D1C88478146002ED1DC53E065
:10129000002E51DDB9F1650F02D0B9F1450F4BD1E8
:1012A000A00549D5B9696D1C1298761E24F44074C6
:1012B0008847002E81460CDD2B2804D0B9F12D0F74
:1012C00007D144F48074B96912986D1C8847761E62
:1012D0008146E00501D52D2100E02B2108F8011BF6
:1012E000CDF8008021E0761E0DF13901884544F4E7
:1012F00000740CD2A9F1300010F0FF0088F8000053
:1013000002D10099884509D908F1010806E0E005F5
:1013100001D51E4801E042F20F708246B969129869
:101320006D1C8847814613980560002E04DD4846F1
:1013300003F075FC0028D6D1F96912988847FF2080
:1013400053468BF8000088F8000000200A900B90AC
:1013500004AA0CA90AA8FFF7ADFDA00502D46FF0FE
:101360000100F8E614F0240F12D0E0071CD1386811
:10137000DDE90A12031D3B600068C0E9001213E0BA
:10138000804400007244000036430000F1D8FFFFA3
:101390000AA9684603F030FCE00705D13868009AD6
:1013A000011D3960006802602846D4E60149182012
:1013B000ABBEFEE726000200704700002DE9FF4F9C
:1013C0001F464FF03C0987B04FF00042DDE9141092
:1013D00001F10108DDF858A002EA40500390002016
:1013E00005908346054604460490B969461E089850
:1013F0008847AAF1010A0290BAF1000F3BDD02987A
:101400002E2815D0102100F016FA00282EDB4FF000
:10141000010B0599014317D0B9F1000F0BDB4A46C8
:10142000C11700F0F5F905430C43A9F1040905E0E3
:10143000012004900BE008B145F001050120059062
:10144000049820B9361D02E0049800B1361FB9692E
:10145000089808F101088847BBF1000FAAF1010ABA
:101460000290C9D00999C1F80080C5E70298702898
:1014700008D0502806D0F96908988847BBF1000FBA
:1014800014D04FE0002002900120BBF1000F049027
:1014900009D0B969089808F101088847AAF101093B
:1014A000B9F1000F07DCF969089888476FF001006F
:1014B0000BB0BDE8F08F2B2804D02D280CD14FF0B5
:1014C000FF300490B969089808F101088847A9F12C
:1014D0000109B9F1000FE6DD411CE4D00A2100F05A
:1014E000AAF90028DFDB029908F1010801EB81016C
:1014F00000EB41000290B969089888470A2100F082
:101500009AF9099AA9F10109B9F1000FC2F800800E
:1015100001DD0028E7DAF9690898884704990298FC
:1015200000FB016655EA040004D004F040410900C4
:1015300002D006E0039898E0A40044EA9574AD0058
:10154000B61E04F00041080002D16D196441761EF8
:10155000159810F0240F03D04FF00B095C4803E0FE
:101560004FF028096FF07D008246564507DAAAEB56
:1015700006018944B9F1410F01DD4FF04109012015
:101580000021A9F1010200F043F9024628400B4670
:101590002140084301D0012100E00021501E0291AA
:1015A00043F1FF3128402140084301D0012000E0F1
:1015B00000200299834651EA0B014FD000210846D2
:1015C0004FF00000039900F4400039B100EB8000B7
:1015D0004FF4400100EBD07001EA60008015012853
:1015E00002DD4FF0FF3000E013D0401C36D00298EF
:1015F00060B3BBF1000F0CD14A460120002100F07E
:1016000007F928402140084301D0012000E00020D4
:10161000E0B101204A46002100F0FAF803464019E3
:101620000A4661412D1A8C4111D3B9F1400F09DDF1
:10163000159810F0240F02D0AAF1340603E0AAF1A5
:10164000170600E0761C00254FF0004406E05B1E04
:1016500042F1FF3220EA030521EA0204CAF1010047
:10166000B04206DA1B49039808430190002000901D
:101670000EE0039AC4F3D321E80A0A43164940EA6C
:1016800044500A433146CDE90002684603F0BDFAF2
:10169000159810F0240F0BD01598C00715D1386895
:1016A000DDE90012031D3B600068C0E900120CE098
:1016B00002A8694603F0A0FA1598C00705D138685A
:1016C000029A011D3960006802604046F0E60000A1
:1016D00002FCFFFF0000F07F0000F03F2DE9FF4F0C
:1016E00092461D4685B04FF00041DDE9124BDDE921
:1016F00014727F1E01EA4B50414940F0FF4940EA15
:101700000108002122F020004928049102D04E282F
:1017100028D04CE03BA0012607C88DE80700A96946
:101720000698641C88477F1E014606D41DF80600F3
:1017300018B121F0200181420BD0E9690698884751
:10174000032E34D0082E32D06FF0010009B0BDE86E
:10175000F08F761C032E01D0082EE0D1601CCAF851
:101760000000DCE7A9690698641C88477F1E2AD41C
:1017700020F02000412826D1A9690698641C8847DA
:101780007F1E20D420F020004E281CD1A969069885
:10179000641C88477F1E48F4002849F48009CAF871
:1017A000004001D4282806D0E969069888475FEAF6
:1017B000CB7012D022E0A9690698641C88477F1E6E
:1017C00001D4002803DAE96906988847BCE729288C
:1017D000F1D1641CCAF80040E9E71BF0240F07D0E0
:1017E00028680499031D2B600068C0E9001805E013
:1017F0002868021D2A600068C0F800902046A5E70E
:101800000000F07F494E46494E49545900000000FF
:10181000B2F120030AD5C2F1200301FA02F120FA45
:1018200003F300FA02F041EA0301704700FA03F102
:101830004FF0000070473A2800D2303820F02002E4
:10184000412A01D3A2F13700884201D34FF0FF3083
:1018500070475FEA400C08BF91F0000F4FEA8C23FD
:101860004FEAC12243EA51514FEA1C5018BF00F51C
:10187000F0404FEA300018BF41F000415FEA6C5C75
:1018800000F02980BCF1FF3F08BF40F08040704766
:10189000130C06BF12044FF0100C4FF0000C130E87
:1018A00004BF12020CF1080C130F04BF12010CF15B
:1018B000040C930F04BF92000CF1020CD30F04BF71
:1018C00052000CF1010C11464FF00002A0F11F0074
:1018D000A0EB0C00704711F0004F08BF704731F0CB
:1018E00000413FF4D5AF0B0C06BF09044FF0100CBC
:1018F0004FF0000C0B0E04BF09020CF1080C0B0F8B
:1019000004BF09010CF1040C8B0F04BF89000CF11A
:10191000020CCB0F04BF49000CF1010CCCF12003E9
:10192000A0EB0C0022FA03F302FA0CF241EA0301E5
:1019300000F10100704720F07F4C80EA030023F0A3
:101940007F47ACEB070303F57C5300F0004003F145
:10195000FF032DE980494FEA154B09B44FEA1443C0
:1019600025EA0B4E24EA03480FF2042606EB132760
:1019700049083E785FEA320203FB0667C7F50007B5
:1019800007FB06F64FEA54374FEAD64606F1020641
:1019900007FB066CCCF1005C4FEA1C472CEA074CB5
:1019A00007FB06F40CFB06F504EB15464FEA96160A
:1019B00034BF00204FF000404FEAD13706FB07FC50
:1019C0004FEA1C4C0CFB0BF7D21B03FB0CF761EB33
:1019D00007010CFB0EF7B0EB074072EB17420CFB54
:1019E00008F734BFA2EB0742B2EB074261EB1741A5
:1019F0004FEA0C444FEA910706FB07FC4FEA1C4CE8
:101A00000CFB0BF7B0EBC74072EB573203FB0CF744
:101A100034BFA2EBC742B2EBC74261EB57310CFBBC
:101A20000EF7B0EBC70072EB57720CFB08F734BF30
:101A3000A2EBC702B2EBC70261EB5771039F4FEAFB
:101A4000816141EA921104EBCC044FEAD1374FEAAD
:101A5000826206FB07FC42EA90124FEA80604FEA7E
:101A60001C4C0CFB0BF7D21B03FB0CF761EB0701C3
:101A70000CFB0EF7B0EB074072EB17420CFB08F7BC
:101A800034BFA2EB0742B2EB074261EB17414FEACA
:101A90008C554FEA910704EB9C2406FB07FC4FEAA8
:101AA0001C4C0CFB0BF7B0EBC74072EB573203FB3F
:101AB0000CF734BFA2EBC742B2EBC74261EB573120
:101AC0000CFB0EF7B0EBC70072EB57720CFB08F77C
:101AD00034BFA2EBC702B2EBC70261EB577115EB43
:101AE0004C254FEA816141EA92114FEA82624FEA46
:101AF000D13742EA901206FB07FC44F100044FEA9A
:101B000080604FEA1C4C0CFB0BF7D21B03FB0CF75D
:101B100061EB07010CFB0EF7B0EB074072EB1742CD
:101B20000CFB08F734BFA2EB0742B2EB074261EBB4
:101B3000174115EB1C154FEA813141EA92414FEAFA
:101B4000823242EA90424FEA80304FEA0C7644F10A
:101B5000000448EA03434EEA0B484FF0000EB2EB94
:101B6000080C71EB030724BF624639464EEB0E0E9C
:101B70004FF0000B0018524149414BEB0B0BB2EBFD
:101B8000080C71EB03077BF1000B24BF624639465A
:101B90004EEB0E0E4FF0000B0018524149414BEB3B
:101BA0000B0BB2EB080C71EB03077BF1000B24BFAE
:101BB000624639464EEB0E0E51EA020718BF46F058
:101BC000010616EB0E7655F1000254F1000103D523
:101BD000BDE88901BDE80088BDE88901BDE800488D
:101BE000B619524141EB0101A3F101037047808016
:101BF0007F7E7D7C7B7A7978777676757473727167
:101C000071706F6E6E6D6C6C6B6A6A69686867661E
:101C100066656464636362616160605F5F5E5E5DB0
:101C20005D5C5C5B5B5A5A59595858575756565524
:101C300055555454535352525251515050504F4F86
:101C40004F4E4E4D4D4D4C4C4C4B4B4B4A4A4A49D6
:101C50004949484848474747474646464545454419
:101C600044444443434343424242424141410000D1
:101C700046EA0646A3F570534FEA164646EA425630
:101C80004FEAD22242EA415210B54FEAD121A3F1E4
:101C9000010300F02FF820F0004000F1020C00F0EA
:101CA000004701EB00501146BCF5006F40EA070009
:101CB00000D210BDBAF1000F0AD01CB503B44FF02A
:101CC00004004FF004014FF000000FBCBDE81040CD
:101CD0004FF00001BBF1010FB9BF04484FF0FF31D5
:101CE0000348002140EA070010BD00BFFFFFEF7F5F
:101CF0000000F07F002B9C4630D477002BD01CB521
:101D00004FEA370703B44FF010004FF01001BAF15B
:101D1000000F06D0BCF1000FDCBF40F0080040F01F
:101D200008014FF000000FBCBDE810400BF1010BA3
:101D3000BBF1010F08BF5FEA170722BF12F10102D2
:101D400011F101014FF0004143F1000300F00040A8
:101D500043EA00007047F9D35708D0E746EA064641
:101D600013F1400F4FEA16461FDD13F1200FDFBFBE
:101D700016430A46002120335B42BED0C3F1200740
:101D800046EA064602FA07F74FEA164646EA07060B
:101D9000C3F1200722FA03F201FA07F721FA03F14F
:101DA0004FF0000342EA0702A7E746EA020646EAC6
:101DB00006464FEA164646EA0106BCBF46EA064614
:101DC000360C4FF000034FF000024FF0000194E793
:101DD0002DE9804C9A46934670B491E8380007C8C4
:101DE00031EA400C48BF34EA430C03D5FFF7A3FDAA
:101DF000FFF780FFF0BCBDE8008C2DE9804C9A46CF
:101E0000934670B491E8380007C831EA400C48BFE7
:101E100034EA430C03D5FFF78EFDFFF729FFF0BC32
:101E2000BDE8008C2DE9804C9A46934670B491E849
:101E3000380007C810F0804F08BF13F0804F03D15F
:101E400000F01AF8FFF756FFF0BCBDE8008C2DE952
:101E5000804C9A46934670B491E8380007C810F059
:101E6000804F08BF13F0804F03D100F005F8FFF753
:101E7000FFFEF0BCBDE8008C20F07F4780EA030045
:101E800023F07F4C07EB0C03A3F57C5300F00040DC
:101E9000A3F1FE0392F0000F00F0B38095F0000F65
:101EA00000F077802DE901494FEA11404FEA1446CE
:101EB00021EA004800FB06FC24EA064708FB06F678
:101EC00007FB08F800FB07F718EB06484CEB164C2D
:101ED0004FEA124B18EB07484FEA15464CEB1740F8
:101EE00022EA0B4E0BFB06FC25EA06470EFB06F624
:101EF00007FB0EFE0BFB07F71EEB064E4CEB164CDA
:101F00004FF000061EEB074E4CEB174B18EB0B087F
:101F100040F1000018EB0E0B58EB000840F10000F8
:101F20008F1A4FF000013CBFC943661B14BFB5EBCD
:101F3000040C00213CBFC943F61B4FEA17444EEA8C
:101F40008E0E27EA04454FEA1C4704FB07622CEA81
:101F5000074C05FB07F70CFB05F604FB0CFC16EB26
:101F6000074642EB174216EB0C4642EB1C421BEBBA
:101F7000060658EB0202414146EA9E0601D5BDE83D
:101F80000189B619524141EB0101A3F10103BDE8FA
:101F900001894FEA14454FEA114724EA054621EA30
:101FA000074C05FB07F406FB07F70CFB06F105FBE6
:101FB0000CFC11EB074144EB17444FEA124711EBBD
:101FC0000C4144EB1C4422EA074C05FB07F206FBDC
:101FD00007F70CFB06F605FB0CFC16EB074642EB7D
:101FE000174216EB0C4642EB1C456A1854F10001EF
:101FF00048BF7047B619524141EB0101A3F10103FB
:10200000704795F0000F37D04FEA11424FEA14475E
:1020100021EA024624EA074C02FB07F106FB07F718
:102020000CFB06F402FB0CFC14EB074441EB1741DC
:102030004FEA154714EB0C4441EB1C4125EA074CD1
:1020400002FB07F506FB07F70CFB06F602FB0CFC90
:1020500016EB074645EB174516EB0C4645EB1C42C5
:10206000121951F1000148BF7047B619524141EBB6
:102070000101A3F1010370474FEA14454FEA1147EC
:1020800024EA054621EA074C05FB07F106FB07F7A2
:102090000CFB06F24FF0000605FB0CFC12EB0742AE
:1020A00041EB174112EB0C4251EB1C4148BF70470A
:1020B000921841EB0101A3F10103704700BFFEE755
:1020C000704772B6FEE7704770B50446A56D00F024
:1020D00065F9064694F83500022808D0802060652E
:1020E00000BF002084F8340000BF012070BD2068CC
:1020F000006820F01600216808602068406920F020
:10210000800021684861206C08B9A06C28B1206863
:10211000006820F00800216808602068006820F04E
:1021200001002168086010E000F038F9801B0528E4
:102130000BD920206065032084F8350000BF002003
:1021400084F8340000BF0320D0E72068006800F066
:1021500001000028E8D194F85C103F208840A86076
:10216000012084F8350000BF002084F8340000BF4F
:1021700000BFBBE7014691F83500022803D080205C
:10218000486501207047052081F83500086800681F
:1021900020F001000A6810600020F3E7F8B502465D
:1021A0000B460025002400200021D6E0012606FA77
:1021B00001F51E6806EA0504AC4274D11E7906F0EA
:1021C0000306012E04D01E7906F00306022E13D159
:1021D00090684F000326BE40B0434F00DE68BE400B
:1021E00030439060506801268E40B0431E79C6F39C
:1021F00000168E40304350601E7906F00306032E11
:1022000009D0D0684F000326BE40B0434F009E68FF
:10221000BE403043D0601E7906F00306022E13D173
:10222000CF0802F1200656F827004E07F70E0F26BA
:10223000BE40B0434F07FF0E1E69BE403043CF087B
:1022400002F1200646F8270010684F000326BE4022
:10225000B0431E7906F003064F00BE4030431060C5
:102260005E6806F44036002E76D000BF0026009649
:102270003C4E366846F480463A4F3E603E463668ED
:1022800006F48046009600BF00BF374E8F0856F810
:1022900027008E07370F0F26BE40B043334EB242A1
:1022A00002D1002624E057E0314EB24201D101268E
:1022B0001EE0304EB24201D1022619E02E4EB2424B
:1022C00001D1032614E02D4EB24201D104260FE0C5
:1022D0002B4EB24201D105260AE02A4EB24201D16C
:1022E000062605E0284EB24201D1072600E0082666
:1022F0008F073F0FBE4030431B4E8F0846F8270024
:10230000224E3068A0435E6806F4801606B1204372
:102310001E4E3060361D3068A0435E6806F400161D
:1023200006B12043194E361D3060184E361F3068F6
:10233000A0435E6806F4003606B12043134E361FF4
:102340003060361F3068A0435E6806F4803606B100
:1023500020430E4E083E3060491C1029FFF426AF82
:10236000F8BD000044380240083801400000024037
:102370000004024000080240000C0240001002402D
:102380000014024000180240001C0240083C0140BA
:102390000AB1816101E00B04836170470148006864
:1023A000704700000400002070B504460CB90120FD
:1023B00070BD94F83D0028B9002084F83C00204608
:1023C00000F0DAF8242084F83D002068006820F04E
:1023D0000100216808602068006840F4004021681E
:1023E00008602068006820F400402168086000F060
:1023F000B5FA05465C496068884206D85B48854264
:1024000001D2012007E0002005E05948854201D2B1
:10241000012000E00020012800D1C9E75548B5FBA4
:10242000F0F62068406820F03F00304321684860A3
:102430004D496068884201D8701C07E04FF49670DF
:1024400070434FF47A71B0FBF1F0401C2168096AC7
:1024500021F03F01084321680862434960688842CF
:1024600014D8681E61684900B0FBF1F0401CC0F34D
:102470000B00042801D204203DE0681E6168490079
:10248000B0FBF1F0401CC0F30B0034E0A06838B999
:10249000681E616801EB4101B0FBF1F0401C0AE0ED
:1024A000681E616801EBC10202EB0111B0FBF1F0A3
:1024B000401C40F48040C0F30B0008B901201AE032
:1024C000A06848B9681E616801EB4101B0FBF1F0FA
:1024D000401CC0F30B000CE0681E616801EBC102F8
:1024E00002EB0111B0FBF1F0401CC0F30B0040F413
:1024F000804040F400402168C9694CF6FF72914366
:1025000008432168C861D4E90701084321680968C4
:1025100021F0C001084321680860D4E90310084392
:102520002168896848F2FF32914308432168886036
:10253000D4E9050108432168C96821F0FF01084377
:102540002168C8602068006840F0010021680860C8
:1025500000202064202084F83D000020206384F8BF
:102560003E0000BF24E70000A086010080841E001A
:1025700000093D0040420F0010B586B0044614210A
:1025800001A8FDF7E1FF1B49206888422FD100BF59
:10259000002000901848006840F0020016490860CA
:1025A0000846006800F00200009000BF00BFC02095
:1025B0000190122002900020039003200490042038
:1025C000059001A90D48FFF7E9FD00BF002000902C
:1025D00009481030006840F40010074910310860C5
:1025E0000846006800F40010009000BF00BF06B06D
:1025F00010BD00000054004030380240000402408A
:102600000348006803490978084401490860704795
:10261000040000200C00002010B50D48006840F4B4
:1026200000700B4908600846006840F4806008604C
:102630000846006840F480700860032000F0B2F89B
:10264000002000F007F800F02BF8002010BD00007B
:10265000003C024070B504460E4800784FF47A7191
:10266000B1FBF0F00C490968B1FBF0F5284600F029
:102670003BFC08B1012070BD102C07D2002221467E
:10268000501E00F051F80548046001E00120F2E717
:102690000020F0E70C0000201000002008000020BF
:1026A00008B500BF002000901448006840F4804046
:1026B000124908600846006800F48040009000BF9E
:1026C00000BF00BF00200090081F006840F080504D
:1026D000091F08600846006800F08050009000BFA5
:1026E00000BF052000F05EF800220221512000F01A
:1026F0001BF8512000F004F808BD000044380240E7
:102700000146084600280DDB00BF00BF00F01F0394
:1027100001229A4043099B0003F1E023C3F8002102
:1027200000BF00BF00BF70472DE9F05F80460D4637
:102730001646002702F030F9074639462A46334646
:1027400001F00700C0F1070ABAF1040F02D94FF0F7
:10275000040A01E0C0F1070AD14600F1040ABAF107
:10276000070F02D24FF0000A01E0A0F1030AD4469D
:102770004FF0010A0AFA09FAAAF1010A0AEA020A62
:102780000AFA0CFA4FF0010B0BFA0CFBABF1010B40
:102790000BEA030B4AEA0B042146404602F004F917
:1027A000BDE8F09F00BF00F00702064B19684FF626
:1027B000FF031940044B0B4343EA0221014B19600C
:1027C00000BF70470CED00E00000FA0570B504464C
:1027D0000D460CB9012070BD5848006800F0070094
:1027E000A84209D255490D700846006800F007005C
:1027F000A84201D00120EEE7207800F00200022874
:102800001DD1207800F00400042805D14C48006850
:1028100040F4E0504A490860207800F00800082899
:1028200005D14748006840F4604045490860444885
:10283000006820F0F000A168084341490860207852
:1028400000F00100A8B36068012807D13C480838AF
:102850000068C0F34040B8B90120BCE760680228B6
:1028600002D06068032807D1354808380068C0F3F3
:10287000406048B90120AEE7314808380068C0F32D
:10288000400008B90120A6E72D48006820F00300A9
:10289000616808432A490860FFF780FD064609E0A1
:1028A000FFF77CFD801B41F28831884202D903206A
:1028B00091E707E02248006800F00C006168B0EB87
:1028C000810FEDD11D48006800F00700A84209D92A
:1028D0001A490D700846006800F00700A84201D0B0
:1028E000012078E7207800F00400042807D114487C
:1028F000006820F4E050E16808431149086020783E
:1029000000F00800082808D10D48006820F4604055
:10291000216940EAC1000A49086000F03FF808490F
:102920000968C1F30311074A515CC84006490860B1
:1029300006480068FFF78EFE00204CE7003C02408E
:1029400008380240545300081000002008000020FE
:1029500001480068704700001000002000B5FFF734
:10296000F7FF04490968C1F38221034A515CC8405A
:1029700000BD0000083802406453000800B5FFF7AE
:10298000E7FF04490968C1F34231034A515CC8407A
:1029900000BD000008380240645300082DE9F047EC
:1029A000002400250026A1462548006800F00C0000
:1029B00020B1042805D008283AD105E0DFF884903A
:1029C00039E0DFF8849036E01D48001F006800F011
:1029D0003F041B48001F006800F4800078B11A48CB
:1029E0001749091F0968C1F38811A0FB017001464E
:1029F000224600233846FDF755FC05460EE01148F7
:102A00000F49091F0968C1F38811A0FB0170014635
:102A1000224600233846FDF745FC05460848001FBE
:102A20000068C0F30140401C4600B5FBF6F902E027
:102A3000DFF8109000BF00BF4846BDE8F0870000F7
:102A4000083802400024F40000127A00F8B5044669
:102A50000CB90120F8BD207800F00100002874D0E6
:102A6000F948006800F00C0004280DD0F648006812
:102A700000F00C00082813D1F348001F006800F490
:102A80008000B0F5800F0BD1EF4808380068C0F324
:102A90004040002859D06068002856D10120D9E76D
:102AA00000BF6068B0F5803F08D1E748083800688B
:102AB00040F48030E449083908601EE06068B0F5F1
:102AC000A02F0DD1E0480838006840F48020DE498E
:102AD000083908600846006840F4803008600CE05F
:102AE000D9480838006820F48030D7490839086090
:102AF0000846006820F48020086000BF606890B13C
:102B0000FFF74CFC054606E0FFF748FC401B642835
:102B100001D903209EE7CC4808380068C0F3404044
:102B20000028F1D011E0FFF739FC054606E0FFF779
:102B300035FC401B642801D903208BE7C2480838C4
:102B40000068C0F340400028F1D1207800F0020076
:102B500002285FD1BC48006800F00C0058B1BA48A8
:102B6000006800F00C0008281CD1B748001F00685E
:102B700000F48000B0B9B44808380068C0F34000E1
:102B800020B1E068012801D0012063E7AE48083891
:102B9000006820F0F800216940EAC100AA4908391C
:102BA000086037E0E06800B30120A8490860FFF73B
:102BB000F5FB054606E0FFF7F1FB401B022801D9B3
:102BC000032047E7A04808380068C0F34000002809
:102BD000F1D09D480838006820F0F800216940EAEB
:102BE000C10099490839086014E00020974908603D
:102BF000FFF7D4FB054606E0FFF7D0FB401B022899
:102C000001D9032026E7904808380068C0F3400047
:102C10000028F1D1207800F0080008282CD1606944
:102C2000A8B101208A490860FFF7B8FB054606E015
:102C3000FFF7B4FB401B022801D903200AE78248B2
:102C40006C300068C0F340000028F1D014E0002090
:102C50007F490860FFF7A2FB054606E0FFF79EFBF1
:102C6000401B022801D90320F4E677486C30006845
:102C7000C0F340000028F1D1207800F004000428BF
:102C800070D1002770483830006800F0805090B94B
:102C900000BF002000906C483830006840F0805041
:102CA0006949383108600846006800F0805000909B
:102CB00000BF00BF01276748006800F48070B0B90A
:102CC0006448006840F4807062490860FFF766FB62
:102CD000054606E0FFF762FB401B022801D90320EE
:102CE000B8E65C48006800F480700028F2D000BFAD
:102CF000A068012808D154486830006840F00100FD
:102D00005149683108601DE0A06805280DD14E4882
:102D10006830006840F004004B496831086008469C
:102D2000006840F0010008600CE047486830006827
:102D300020F001004449683108600846006820F02E
:102D40000400086000BFA068A8B1FFF727FB054694
:102D500009E0FFF723FB401B41F28831884202D98A
:102D6000032077E626E0384868300068C0F340006A
:102D70000028EED013E0FFF711FB054608E0FFF74F
:102D80000DFB401B41F28831884201D9032061E6E6
:102D90002D4868300068C0F340000028EFD1012FB3
:102DA00007D129483830006820F080502649383152
:102DB000086000BFA069002845D02348006800F0E3
:102DC0000C0008285DD0A069022845D100201F49C9
:102DD0000866FFF7E3FA054606E0FFF7DFFA401B57
:102DE000022801D9032035E6174808380068C0F3E7
:102DF00040600028F1D1D4E907010843616A40EA44
:102E000081110122A06AC2EB500041EA00412C204E
:102E1000005D41EA00600C49091F086001200B4970
:102E20000866FFF7BBFA054606E0FFF7B7FA401B56
:102E3000022801D903200DE6034808380068C0F3D2
:102E400040600028F1D049E00838024000004742C5
:102E5000800E474200700040002021490866FFF7BD
:102E60009DFA054606E0FFF799FA401B022801D9B2
:102E70000320EFE51B480068C0F340600028F2D152
:102E80002CE0A069012800D1E4E51648001D066881
:102E9000A069012820D006F48001E06981421BD19D
:102EA00006F03F01206A814216D147F6C0703040DB
:102EB000616AB0EB811F0FD106F440310122A06A94
:102EC000C2EB5000B1EB004F06D106F070612C2030
:102ED000005DB1EB006F01D00120BBE50020B9E53A
:102EE000000047420038024070B504462546681E7F
:102EF000B0F1807F01D301200FE0681E4FF0E02188
:102F000048610F214FF0FF3001F04EFD00204FF0DF
:102F1000E021886107200861002070BD704770477C
:102F200030B502460B4600BF92F83C00012801D1A3
:102F3000022030BD012082F83C0000BF022082F850
:102F40003D00106844681068816824F070041868B7
:102F5000044310684460184D1068A8421BD01068E4
:102F6000B0F1804F17D0154D1068A84213D0144D02
:102F70001068A8420FD0134D1068A8420BD0124D14
:102F80001068A84207D0114D1068A84203D0104D18
:102F90001068A84205D121F08001586801431068EB
:102FA0008160012082F83D0000BF002082F83C00D3
:102FB00000BF00BFBDE7000000000140000400406A
:102FC00000080040000C00400004014000400140A7
:102FD0000018004010B504460CB9012010BD94F84B
:102FE0003D0028B9002084F83C00204600F026F877
:102FF000022084F83D00211D206801F0A5F9012080
:1030000084F8460000BF84F83E0001213F200155AE
:10301000402001554120015500BF00BF012084F828
:10302000420043200155442001554520015500BF71
:10303000012084F83D000020D0E7000038B50446A8
:1030400029492068884230D100BF002000902748DD
:10305000006840F00100254908600846006800F05B
:103060000100009000BF00BF002201211820FFF7DF
:103070005BFB1820FFF744FB002201211920FFF71A
:1030800053FB1920FFF73CFB002201211A20FFF718
:103090004BFB1A20FFF734FB002201211B20FFF716
:1030A00043FB1B20FFF72CFB1DE0114920688842E1
:1030B00019D100BF002000900C48001F006840F0AC
:1030C00004000A49091F08600846006800F004006F
:1030D000009000BF00BF002201211E20FFF724FB4B
:1030E0001E20FFF70DFB38BD0000014044380240B0
:1030F000000800402DE9F04104460D46002700BFBE
:1031000094F83C00012802D10220BDE8F0810120A2
:1031100084F83C0000BF022084F83D0020688668E7
:1031200026F0770626F47F462068866028685028B7
:1031300033D00CDC202850D004DC00284BD01028E1
:1031400051D149E0302849D040284CD139E060289D
:103150002DD0702807D0B0F5805F03D0B0F5005FA8
:1031600041D10DE041E0D5E902136A68206801F021
:103170005FF92068866846F077062068866034E04C
:10318000D5E902136A68206801F052F92068806866
:1031900040F480402168886027E0EA686968206818
:1031A00001F036FA5021206801F04DF91DE0EA687F
:1031B0006968206801F03FFA6021206801F043F956
:1031C00013E0EA686968206801F022FA402120686B
:1031D00001F039F909E000BF00BF00BF296820688D
:1031E00001F031F901E0012700BF00BF012084F8A0
:1031F0003D0000BF002084F83C0000BF384684E753
:103200002DE9F04104460D4614B90120BDE8F081D6
:1032100094F83D0028B9002084F83C00204600F0D6
:1032200053F8022084F83D002068806844F20701CA
:10323000884321688860211D206801F085F8206896
:10324000D0F80880206886692068076A286840EA04
:10325000080840F203308643A969A86840EA0120C3
:10326000064340F60C4086434FF2F0008643E9697E
:10327000E86840EA0120064328690001296A40EA1B
:103280000130064327F0220727F08807696968683C
:1032900040EA011007432068C0F808802068866172
:1032A00020680762012084F8460084F83E0001216E
:1032B0003F200155012084F84200432001550120A0
:1032C00084F83D000020A1E710B586B00446142123
:1032D00001A8FDF739F92068B0F1804F37D100BF60
:1032E000002000903848006840F00100364908602E
:1032F0000846006800F00100009000BF00BF00BF5A
:103300000020009030481038006840F001002E493D
:10331000103908600846006800F00100009000BF06
:1033200000BF03200190022002900020039004902F
:103330000120059001A92548FEF730FF0022012158
:103340001C20FFF7F1F91C20FFF7DAF93AE02049D9
:103350002068884236D100BF002000901A480068DB
:1033600040F00200184908600846006800F00200BA
:10337000009000BF00BF00BF00200090124810382E
:10338000006840F0010010491039086008460068E4
:1033900000F00100009000BF00BFC020019002209B
:1033A00002900020039004900220059001A9074894
:1033B000FEF7F4FE002201211D20FFF7B5F91D20C4
:1033C000FFF79EF906B010BD4038024000000240F1
:1033D00000040040704770B504462068C568206846
:1033E000066906F00200022819D105F00200022841
:1033F00015D1401F2168086101202077206880696D
:1034000000F0030018B12046FFF7E4FF05E0204676
:1034100000F0CAF8204600F07EF90020207706F080
:103420000400042819D105F00400042815D1C04374
:1034300021680861022020772068806900F44070CC
:1034400018B12046FFF7C6FF05E0204600F0ACF8B3
:10345000204600F060F90020207706F008000828D8
:1034600019D105F00800082815D1C043216808616A
:10347000042020772068C06900F0030018B12046BE
:10348000FFF7A8FF05E0204600F08EF8204600F088
:1034900042F90020207706F01000102819D105F01D
:1034A0001000102815D1C04321680861082020773A
:1034B0002068C06900F4407018B12046FFF78AFF09
:1034C00005E0204600F070F8204600F024F90020C6
:1034D000207706F0010048B105F0010030B16FF02F
:1034E000010021680861204600F016F906F080000E
:1034F000802809D105F08000802805D1C0432168CB
:1035000008612046FFF70AFD06F04000402809D177
:1035100005F04000402805D1C043216808612046DD
:1035200000F0FBF806F02000202809D105F020006B
:10353000202805D1C043216808612046FFF7EFFC31
:1035400070BD000010B586B00446142101A8FCF738
:10355000FBFF1249206888421DD100BF0020009067
:103560000F48006840F008000D49086008460068F0
:1035700000F00800009000BF00BF4FF440500190E1
:10358000022002900020039004900220059001A9DF
:103590000448FEF703FE06B010BD0000000800401E
:1035A00030380240000C024070472DE9F0410446DB
:1035B0000D461646002700BF94F83C00012802D1B2
:1035C0000220BDE8F081012084F83C0000BF36B144
:1035D000042E1BD0082E31D00C2E5ED145E029469A
:1035E000206800F039FF2068806940F008002168F9
:1035F00088612068806920F0040021688861206863
:103600008069296908432168886148E02946206863
:1036100000F05AFF2068806940F4006021688861EA
:103620002068806920F48060216888612068806952
:10363000296940EA01202168886130E02946206834
:1036400000F080FF2068C06940F008002168C86170
:103650002068C06920F004002168C8612068C06942
:10366000296908432168C86119E02946206800F0EB
:10367000A5FF2068C06940F400602168C861206827
:10368000C06920F480602168C8612068C069296928
:1036900040EA01202168C86101E0012700BF00BFA6
:1036A00000BF002084F83C0000BF384689E710B511
:1036B00004460CB9012010BD94F83D0028B9002043
:1036C00084F83C00204600F025F8022084F83D00F4
:1036D000211D206800F038FE012084F8460000BF5C
:1036E00084F83E0001213F20015540200155412032
:1036F000015500BF00BF012084F84200432001555E
:10370000442001554520015500BF012084F83D00AB
:103710000020D0E770477047704770477047704788
:10372000F8B5016804460868CA684B6910F00F0FC5
:103730004FF0000559D003F0010602F490773743AB
:1037400065D0C10705D0D10503D5616C41F00101F9
:103750006164410705D5D90703D0616C41F00201CE
:103760006164810705D5D90703D0616C41F004017C
:103770006164010707D502F02001314303D0616C79
:1037800041F008016164616C00293AD0800604D5DB
:10379000900602D5204600F091FF20684069616CD8
:1037A000C0F38010090700D460B3204600F05FFF2B
:1037B00020684069400621D52068143050E8001F79
:1037C00021F0400140E80012002AF5D1E06BA8B1D9
:1037D0006E490165E06BFEF7CDFC002811D0E06B6F
:1037E000016D01B0BDE8F040084783060FD5930690
:1037F0000DD52046BDE8F84000F060BF2046FFF739
:103800008EFFF8BD2046FFF78AFF6564F8BD266B82
:103810002023012E7DD1C6067BD5D60679D5086832
:103820004868009048694FF00206400641D5E16BB8
:10383000086840680004000CE8D0A28D8242E5D9F7
:10384000E085C869B0F5807F2DD020680C3050E845
:10385000001F21F4807140E80012002AF5D1206891
:10386000143050E8001F21F0010140E80012002A46
:10387000F5D12068143050E8001F21F0400140E8E5
:103880000012002AF5D184F84230256320680C30FC
:1038900050E8001F21F0100140E80012002AF5D185
:1038A000E06BFEF711FC6663A08DE18D401A81B2DA
:1038B0002AE0A08DE18D401A81B2E08D0028A5D0CC
:1038C0000029A3D022680C3252E8000F20F4907037
:1038D00042E80007002FF5D12068143050E8002F8F
:1038E00022F0010240E80027002FF5D184F8423091
:1038F000256320680C3050E8002F22F0100240E8C9
:103900000023002BF5D166632046FFF707FFF8BDC3
:10391000FFE705062BD5150629D594F84100212887
:10392000F5D1A068B0F5805F01D12069B0B1206AFF
:10393000411C2162216800784860E08C401E000430
:10394000000CE084E3D12068C16821F08001C160EF
:103950002068C16841F04001C160D8E7206A008852
:10396000C0F308004860206A801C2062E5E740063A
:10397000CDD55006CBD5CA68204622F04002CA6099
:1039800084F8413000F0B6F9C1E700005F46000856
:1039900070B5040004D094F84100002510B106E091
:1039A000012070BD84F84050204600F023F8242008
:1039B00084F841002068C16821F40051C1602046AC
:1039C00000F0DEFE2068016921F490410161206869
:1039D000416921F02A0141612068C16841F4005128
:1039E000C1606564202084F8410084F8420065636A
:1039F000002070BD10B586B00446142101A8FCF764
:103A0000A3FD5D492068884238D100BF00200090A6
:103A10005A48006840F40030584908600846006879
:103A200000F40030009000BF00BF00BF00200090F5
:103A300052481038006840F00100504910390860C1
:103A40000846006800F00100009000BF00BF0C2095
:103A50000190022002900020039003200490072090
:103A6000059001A94648FEF799FB00220121262076
:103A7000FEF75AFE2620FEF743FE7BE04149206810
:103A8000884239D100BF002000903C48006840F4D3
:103A900080203A4908600846006800F480200090C1
:103AA00000BF00BF00BF00200090344810380068FD
:103AB00040F002003149103908600846006800F003
:103AC0000200009000BF00BF4FF440600190022050
:103AD000029000200390032004900720059001A984
:103AE0002948FEF75BFB002202212720FEF71CFE7F
:103AF0002720FEF705FE3DE024492068884239D1A1
:103B000000BF002000901D48001D006840F020000C
:103B10001A49091D08600846006800F0200000905E
:103B200000BF00BF00BF002000901448103800689C
:103B300040F004001149103908600846006800F0A0
:103B40000400009000BF00BFC0200190022002903E
:103B500000200390032004900820059001A90C4840
:103B6000FEF71CFB002202214720FEF7DDFD472067
:103B7000FEF7C6FD06B010BD0044004040380240CC
:103B800000000240004800400004024000140140D0
:103B90000008024090F84230202B01D002207047EC
:103BA00021B11AB10023036300F070BE01207047F9
:103BB00010B5044621492068884234D101220421ED
:103BC0001F48FEF7E5FB1F48007820B1012811D0FF
:103BD000022827D125E01C481C490978405C23288D
:103BE00007D101201749087018480078401C174970
:103BF000087017E0144815490978405C3B2803D148
:103C00000220104908700BE010480078401C0F4952
:103C1000087008460078322802D90020087010BDCC
:103C200000E000BF00BF0848084A1278811801224E
:103C30000748FFF7AFFF00BFF1E700000044004076
:103C400000040240140000207C0200201500002027
:103C50008C0100202DE9F843044690F84100984675
:103C600016460D46202802D00220BDE8F88385B113
:103C70007EB100206064212084F84100FEF78EFBB5
:103C8000A6848146E684A0682027B0F5805F02D034
:103C900003E00120E9E7206910B12E4600250EE07F
:103CA00000260CE08021204600F00BFEA8B9C6B12A
:103CB00016F8010B21684860E08C401EE084E08C1F
:103CC0004B464FF00002CDF800800028EAD14FF0BB
:103CD0004001204600F0F5FD40B184F8417003201A
:103CE000C3E735F8020BC0F30800E3E784F841703E
:103CF0000020BAE7704700BFFEE7000000B587B0BC
:103D0000142102A8FCF720FC00BF002001903548D8
:103D1000006840F08000334908600846006800F001
:103D20008000019000BF00BF00BF00200190084646
:103D3000006840F0010008600846006800F00100DB
:103D4000019000BF00BF00BF00200190084600683E
:103D500040F0020008600846006800F00200019090
:103D600000BF00BF00BF002001900846006840F07F
:103D7000080008600846006800F00800019000BFD5
:103D800000BF00BF002001900846006840F004001A
:103D900008600846006800F00400019000BF00BF02
:103DA00000224FF206011048FEF7F2FA43F2060035
:103DB000029001200390002004900120059002A9A8
:103DC0000948FEF7EBF94FF44040029001200390C0
:103DD00000200490059002A90348FEF7DFF907B020
:103DE00000BD0000303802400004024010B50B480E
:103DF0000B4908600B484860002109488160C16098
:103E00004FF480410161002141618161C161016222
:103E1000FEF7CAFA08B1FEF754F910BD005400408D
:103E200018000020A086010000B587B00020039094
:103E3000049005900690019002901548154908607D
:103E40004AF20F404860002112488160C721C160DA
:103E50000021016141618161FFF7BCF808B1FEF703
:103E600030F94FF48050039003A90A48FFF742F954
:103E700008B1FEF726F900200190029001A905483B
:103E8000FFF74EF808B1FEF71CF907B000BD0000BF
:103E9000000001406C00002000B58BB0242102A876
:103EA000FCF752FB0020009001904FF08040174932
:103EB0000860002048600021144881604FF6FF71BF
:103EC000C160002101618161032002900020039004
:103ED0000120049000200590069007900120089092
:103EE000002009900A9002A90848FFF789F908B153
:103EF000FEF7E7F800200090019069460348FFF7BD
:103F00000FF808B1FEF7DDF80BB000BDB4000020DB
:103F100000B58BB0242102A8FCF716FB002000900E
:103F20000190184818490860002048600021164890
:103F300081604FF6FF71C160002101618161012044
:103F4000029000200390012004900020059006902C
:103F5000079001200890002009900A9002A90A48C1
:103F6000FFF74EF908B1FEF7ACF800200090019081
:103F700069460548FEF7D4FF08B1FEF7A2F80BB07A
:103F800000BD000000040040FC00002000B58DB022
:103F9000002009900A900B900C90079008901C212B
:103FA0006846FCF7D1FA244824490860A7204860F5
:103FB00000212248816042F20F71C160002101613D
:103FC0008161FFF707F808B1FEF77BF84FF48050E6
:103FD000099009A91948FFF78DF808B1FEF771F8A3
:103FE0001648FFF764FB08B1FEF76BF80020079056
:103FF000089007A91148FEF793FF08B1FEF761F892
:1040000060200090002001900290049000226946F8
:104010000A48FFF7CAFA08B1FEF753F804226946C6
:104020000648FFF7C2FA08B1FEF74BF80348FFF75E
:1040300089FA0DB000BD00000008004044010020D6
:1040400010B50B480B4908604FF4E130486000217F
:1040500008488160C16001610C21416100218161DA
:10406000C161FFF795FC08B1FEF72BF810BD000009
:10407000004400408C01002010B50B480B4908603B
:104080004FF4E1304860002108488160C16001615F
:104090000C21416100218161C161FFF779FC08B108
:1040A000FEF70FF810BD000000480040D4010020CA
:1040B00010B50B480B4908604FF4E130486000210F
:1040C00008488160C16001610C214161002181616A
:1040D000C161FFF75DFC08B1FDF7F3FF10BD000003
:1040E000001401401C02002000BFFEE700BFFEE7F5
:1040F0002DE9F0412DED028B82B040480078022876
:104100007AD13F480078401CC7B23A463D493E4804
:10411000FCF7B3F93C4C002523212046FCF7A3F91A
:104120008046B8F1000F02D008F1010412E000202F
:104130003349087032213348FCF706FA32213248FD
:10414000FCF7E0F92F482E4A1278811801222F48F7
:10415000FFF720FD781E2C49085C3B2804D002B0F4
:10416000BDEC028BBDE8F0811EE000E0641CFCF7B2
:1041700091F800682178405C00F098000028F5D1A3
:1041800001A9204600F008FD214800EB850080EDE4
:10419000000A0198844200D10AE0019C6D1C00E0F5
:1041A000641C20782C28FBD0207808B1062DDCDB9D
:1041B00000BF002613E0164800EB860090ED000AD1
:1041C00010EE101A084600F0C7FF41EC180B06F17C
:1041D000410153EC182B0FA0FCF7DCF8761CAE4223
:1041E000E9DB00200649087032210648FCF7ACF9EB
:1041F00000200249087000BF00BFB0E71400002093
:10420000150000207C020020AE0200208C0100205E
:104210006402002056616C75652025633A2025668E
:104220000A0000007047704710B5FEF7E9F910BDAD
:1042300030B593B030216846FCF786F914210CA8FC
:10424000FCF782F91D480025016841F080510160AA
:10425000006800F0805011901948016841F48041D5
:1042600001600068022400F4804011900120009059
:10427000000401908001CDE9064008AA0420A8218D
:1042800082E813000B906846FEF7E0FB08B172B6B7
:10429000FEE70CA90F2081E831004FF4A0500F90E9
:1042A0004FF48050109005210CA8FEF78FFA0028DB
:1042B00001D072B6FEE713B030BD000040380240B6
:1042C000007000400348006840F470000149086035
:1042D0007047000088ED00E010B50248FFF77BF85A
:1042E00010BD00006C00002010B50248FFF773F805
:1042F00010BD00006C00002010B50248FFF76BF8FD
:1043000010BD00006C00002010B50248FFF763F8F4
:1043100010BD00006C00002010B50248FFF75BF8EC
:1043200010BD0000B400002010B50248FFF753F89C
:1043300010BD0000FC00002010B50248FFF74BF84C
:1043400010BD00004401002010B502682D4B9842BA
:104350000ED0B0F1804F0BD02B4B984208D02B4B96
:10436000984205D02A4B984202D02A4B984203D15A
:1043700022F070024B681A43224B984220D0B0F1D1
:10438000804F1DD0204B98421AD0204B984217D016
:104390001F4B984214D01F4B984211D01E4B98428D
:1043A0000ED01E4B98420BD01D4B984208D01D4B8F
:1043B000984205D01C4B984202D01C4B984203D126
:1043C00022F44072CB681A4322F080034C6943EA1E
:1043D000040202608B68C3620B688362094B9842D7
:1043E00002D00C4B984201D10B6903630123436156
:1043F000036903F001031BB1036923F001030361A7
:1044000010BD000000000140000400400008004012
:10441000000C004000040140004001400044014005
:104420000048014000180040001C004000200040EF
:1044300030B50C46816821F47F4142EA03252543CB
:104440002943816030BD0A46816821F0700142F045
:10445000070319438160704730B5026A056A25F089
:10446000010505624368846924F0700424F00304A4
:104470000D682C4322F002028D682A43104DA84299
:1044800000D103E00F4DA84206D100BF22F0080280
:10449000CD682A4322F00402094DA84202D0094DFA
:1044A000A84207D123F4807323F400734D692B4392
:1044B0008D692B43436084614D684563026230BD62
:1044C000000001400004014030B5026A056A25F091
:1044D000100505624368846924F4E04424F44074C0
:1044E0000D6844EA052422F020028D6842EA051294
:1044F000124DA84200D103E0114DA84207D100BFE0
:1045000022F08002CD6842EA051222F040020B4DF3
:10451000A84202D00A4DA84209D123F4806323F4B3
:1045200000634D6943EA85038D6943EA850343606F
:1045300084614D688563026230BD00000000014067
:104540000004014030B5026A056A25F480750562F1
:104550004368C46924F0700424F003040D682C43FC
:1045600022F400728D6842EA0522124DA84200D161
:1045700003E0114DA84207D100BF22F40062CD68CC
:1045800042EA052222F480620A4DA84202D00A4D76
:10459000A84209D123F4805323F400534D6943EA20
:1045A00005138D6943EA05134360C4614D68C56313
:1045B000026230BD000001400004014030B5036AD2
:1045C000056A25F4805505624468C26922F4E04218
:1045D00022F440720D6842EA052223F400538D68EC
:1045E00043EA0533084DA84202D0084DA84204D141
:1045F00024F480444D6944EA85144460C2614D68E6
:104600000564036230BD0000000001400004014069
:1046100030B50B461446026A056A25F001050562AD
:10462000816921F0F00141EA041122F00A021A43E3
:104630008161026230BD30B50B461446026A056ADC
:1046400025F010050562816921F4704141EA0431C9
:1046500022F0A00242EA03128161026230BD10B56D
:10466000806B0021C185C184FFF759F810BD016836
:104670000C3151E8002F22F4907241E80023002B06
:10468000F5D10168143151E8002F22F0010241E810
:104690000023002BF5D1016B012909D101680C31F0
:1046A00051E8002F22F0100241E80023002BF5D141
:1046B000202180F8421000210163704708B590F86E
:1046C0004210222901D0022008BD82684FF4805395
:1046D0009A4201D1016921B1816A9A421BD04AB143
:1046E0000AE00268816A5268C2F308020A80816A9D
:1046F000891C08E0026972B10268526802F07F0208
:104700000A70816A491C8162C18D491E0904090C25
:10471000C18503D01BE002685268F1E70168CA68EE
:1047200022F02002CA600168CA6822F48072CA605E
:1047300001684A6922F001024A61202180F8421092
:1047400000214163026B012A03D0FFF731FA0020F8
:1047500008BD016301680C3151E8002F22F01002FE
:1047600041E80023002BF5D101680A68D20602D582
:104770000A6849680091818DFEF7D0FFE7E70000E5
:1047800070B5044600680169E26821F440511143A4
:1047900001612169A068E269084361691143084326
:1047A0002168CA6849F20C639A430243CA602068D0
:1047B0004169A26921F44071114341613149206886
:1047C000884202D03049884202D1FEF7D7F801E092
:1047D000FEF7C4F8E2690023192164253226B2F5F8
:1047E000004F626828D0A0FB0101930F9200FBF7F5
:1047F00059FD0146B0FBF5F06FF01802504301EB94
:10480000800006EB0010B0FBF5F000F0F002B1FB09
:10481000F5F002EB0012B1FBF5F06FF0180358430E
:1048200001EB800006EB0010B0FBF5F000F00F008C
:1048300021681044886070BDA0FB010192185B41A3
:10484000FBF730FD0146B0FBF5F00201B1FBF5F0DE
:104850006FF01803584301EB800006EBC000B0FB7B
:10486000F5F000F0F80002EB4002B1FBF5F0584320
:1048700001EB800006EBC000B0FBF5F000F0070094
:10488000D6E70000001001400014014081628285DB
:10489000C28500214164222180F84210016921B1C2
:1048A0000168CA6842F48072CA6001684A6942F0CD
:1048B00001024A610068C16841F02001C160002026
:1048C00070472DE9F843984617460D460446089E62
:1048D00024E0701C22D0FDF761FDA0EB0800B0427F
:1048E0001AD8CEB12068C168490717D5802D15D0D8
:1048F000402D13D00168C94309070FD40168002572
:10490000406800902046FFF7B2FE0820606484F8FB
:1049100040500120BDE8F8830320FBE720680068D1
:1049200035EA000004D00020B842D2D00020F1E7E0
:104930000120F9E710B50248FEF7F2FE10BD0000B5
:104940008C01002010B50248FEF7EAFE10BD000001
:10495000D401002010B50248FEF7E2FE10BD0000B1
:104960001C02002000BFFEE703B40198410000983C
:1049700050EAC12018BF04204A0D18BF40F00100C2
:1049800040F2FF72B2EB515F08BF40F00200012815
:1049900008BF052002B0704702480068C0F302203B
:1049A000704700000CED00E010B5002804DB0A079A
:1049B000130E054A135406E00A07140E034A00F0CA
:1049C0000F031B1FD45410BD00E400E018ED00E0FD
:1049D00030B52DED048B81B0B0EE408AF0EE608AE8
:1049E0006A4651EC180B00F02FF900989FED329BAE
:1049F0007E300090002821DC53EC192B51EC180B71
:104A000000F0FEF91AD0002140F608004FF0000037
:104A1000044651EC180B00F0ADF908EE100A40F610
:104A2000080004EA00014FF00000B5EEC08AF1EE84
:104A300010FA04BF0220FCF701FA2DE00098FF28CD
:104A400030DB002108464FF0000000F4400553EC35
:104A5000192B51EC180B00F049FB8CBF00240124EA
:104A60000220FCF7EBF99FED168A4DB1002C0CBF2C
:104A70004FF400004FF48000A84218BF9FED118A48
:104A8000042108464FF00000002C01BFB1EE480A97
:104A900001B0BDEC048B30BDB0EE480A01B0BDECF6
:104AA000048B30BD51EC180B00F064F901B000EE3E
:104AB000100ABDEC048B30BD0000000000000000B7
:104AC0000000807FFFFF7F7F30B540F2FF742DED47
:104AD000048BF0EE608A18EE901A85B0B0EE408A32
:104AE0009FED2B9B05468DED008B34EA115147D08D
:104AF00053EC192B51EC180B00F082F940D02A46E8
:104B000051EC180B00F0DAFB41EC180B18EE900A90
:104B10008DED008B34EA10501CD053EC192B51EC66
:104B2000180B00F06DF92BD10220FCF787F900F08B
:104B300053F810EE901A18EE900A8DED020B8DEDE1
:104B4000008B61F31E0003909DED020B05B0BDECE0
:104B5000048B30BD0220FCF771F900F02DF810EE47
:104B6000901A18EE900A8DED020B8DED008B61F31B
:104B70001E0003909DED020B05B0BDEC048B30BD13
:104B800005B0B0EE480AF0EE680ABDEC048B30BD0B
:104B9000000000000000000008B59FED060A0A466C
:104BA00001468DED000A6846FBF734FF9DED000AD3
:104BB00008BD0000000000009FED050B10B553EC90
:104BC000102B51EC100B00F093F941EC100B10BDC1
:104BD00000000000000000709FED050B10B553ECC5
:104BE000102B51EC100B00F083F941EC100B10BDB1
:104BF000000000000000001010B5044691ED000B0D
:104C0000FFF7E6FE84ED000A10BD10B5044690EDF6
:104C1000000B0846FFF758FF84ED000B10BD30383D
:104C20000A2801D2012070470020704713B50C46B6
:104C30000A23012269460248FFF70CF800981CBDC0
:104C40008C0100200000000010B582B01446CDE9B0
:104C500000010023009A2360194B21F00040984284
:104C60002ADA024328D0B0F5801FA8BF226810DAE4
:104C70009FED150B53EC102B9DED000B51EC100B21
:104C800000F036F9CDE900016FF0350221F0004067
:104C900022600F4B6FF31E5103EB20501044206035
:104CA00041F0FF5040F0005001909DED000B00BF1F
:104CB00002B051EC100B10BD9DED000BF8E70000A9
:104CC0000000F07F000000000000000000005043E2
:104CD00002FCFFFFFDF7A0FCFFF7AAFAFFF70EF8B2
:104CE000FFF7A2F8FFF7D8F8FFF712F9FFF74EF930
:104CF000FFF7A6F9FFF7C0F9FFF7DAF9FFF776F843
:104D0000012204490448FEF745FF00BFFFF7F0F910
:104D1000FCE700007C0200208C01002010B5002977
:104D20000AD00878002807D005487844FCF71CF81A
:104D3000002801D0002010BD0248784410BD0000BA
:104D400006070000FE06000010B500290AD008780A
:104D5000002807D005487844FCF706F8002801D061
:104D6000002010BD0248784410BD0000EA07000092
:104D7000E207000021F00042A2F16052B2F5801F6C
:104D800001F0004328BFD2F17F6C0BD95FEA001C11
:104D900043EAC20242EB507018BF704728BF20F0B0
:104DA00001007047B2F5801FBCBF184670474FEA3C
:104DB000410C1CF5001F02D2084600F043BA70B542
:104DC00000F040F900000089FFF7F6BF4FF0004007
:104DD000A0F580007047000002494FF0000000F08D
:104DE0003BBA00BF0000F87F491058BFC1F14041F5
:104DF0005B1058BFC3F140438B42EFF30080704714
:104E000051EA030C17D41CF5801F58BFBCF5801F56
:104E100000F10680994218BF704708BF9042704762
:104E200007D711F5801F58BF13F5801F19D4994279
:104E30007047894270471CF5801F08D5BCF5801F5C
:104E4000F7D58B4218BF704708BF824270474FF4B6
:104E5000001C1CEB410F38BF1CEB430F01D28B42EF
:104E6000704770B500F0EEF8922449004FF0005101
:104E70004FF08053FFF7B8BF51EA030C17D41CF56D
:104E8000801F58BFBCF5801F00F10680994218BFF3
:104E9000704708BF9042704707D711F5801F58BF71
:104EA00013F5801F19D499427047894270471CF549
:104EB000801F08D5BCF5801FF7D58B4218BF7047FF
:104EC00008BF824270474FF4001C1CEB410F38BFF3
:104ED0001CEB430F01D28B42704770B500F0B2F863
:104EE000922449004FF000514FF08053FFF77CBFF0
:104EF000DFF848C170B51CEA111E1EBF1CEA13156D
:104F00009EEA0C0F95EA0C0F00F06F8081EA030413
:104F100023EA4C134EEAD47E21EA4C1141F480116D
:104F200043F48013AE44A1FB024CA0FB0365AEF139
:104F30007F7E361955EB0C05A1FB034C4CF10003A9
:104F4000A0FB021C16EB0C06654153F1000309425D
:104F500018BF46F0010613F4007F0BD14FEA03316E
:104F60004FEA0530340341EA155140EA16506FF01C
:104F700003020AE04FEAC3214FEAC520F40241EAE6
:104F8000555140EA56506FF0020202EB2E4201EBFF
:104F9000025585EACE710AD05FEA440C18BF24F0AE
:104FA000004450F1000041F1000120EAD47040F2C9
:104FB000FE7C624500D270BDA84214BF4FF0804411
:104FC0004FF04044002E08BF0024BEF1806FA8BF00
:104FD000A1F1C041BDE8704080F282804FF0000036
:104FE00001F1C04101F0004170479EEA0C0F0CEA4C
:104FF000131518BF95EA0C0F06D04FF0000081EA98
:10500000030E0EF0004170BD00F01CF88900013E57
:1050100000F007B800F009B84FEA430C5FEA5C5CA7
:1050200008D081EA030100F05BB84FEA410C5FEA67
:105030005C5CF6D14FF00000014970470000FF07AB
:105040000000F87F0EF1020E2EF0030E5EF8046BE6
:10505000364205D4012A43EB030515F5001F12D88B
:10506000012841EB010C1CF5001F0CD80ED14FEAB2
:10507000D17C15F5001F0CEB4C0C0CF1020C08BF99
:105080004CEBD37C04E04FF0080C01E04FEAD37CFA
:105090000CEB4C0526FA05F606F00706B6F1040CF3
:1050A00006D20EEB860CBDE870404CF0010C604758
:1050B000DFE80CF0090B02024FF000414FF0000056
:1050C000A1F5002170BD19461046012851EB0104DD
:1050D00018BFD4F5001484BF002001F0004170BD5A
:1050E0000808A0F500114FEA3101704753EA010C9E
:1050F00017D41CF5801F58BFBCF5801F00F1068037
:105100008B4218BF704708BF8242704707D713F51C
:10511000801F58BF11F5801F19D48B4270479B42E6
:1051200070471CF5801F08D5BCF5801FF7D5994244
:1051300018BF704708BF904270474FF4001C1CEB2B
:10514000430F38BF1CEB410F01D2994270470FB497
:105150000CBC03BCFFF7C1BE43004FEAD30C4FEABF
:105160003C0C43401FBF40070CF1605113F0FE4F51
:1051700070471CF0006F03D100200CF00041704715
:105180000CF0004343EA507010B540EACC0000F048
:105190000EF800BF000000924FEA0001FFF7A0BF29
:1051A0004FF000414FF00000A1F5002170470EF1D3
:1051B000020E2EF0030E5EF8044B244204D44FEA94
:1051C0004102B2F17F4F11D84FEA4003B3F17F4F54
:1051D0000CD80ED14FEAD07CB2F17F4F0CEB4C0CC7
:1051E0000CF1020C08BF4CEBD17C04E04FF0080C32
:1051F00001E04FEAD17C0CEB4C0324FA03F404F0F9
:105200000704B4F1040C06D20EEB840CBDE8104088
:105210004CF0010C6047DFE80CF0070802024FF089
:105220000040A0F5800010BD0846420018BFD2F132
:10523000807288BF00F0004010BD4FF04070E1EE7A
:10524000100A7047FF2141EAD050C00570474FF067
:1052500000007047FBF77FBA0CF00F03092B08BF63
:10526000082000F05F800A2B0BD0082B18BF704776
:1052700008BF1CF0400F0AD04FF000004FF00001B3
:1052800070471CF0400F18BF4FF0004070471CF0F3
:10529000100F08D020F0704300F07F4242EAD301A3
:1052A0004FEA4370704700F0604021F07F4242EACD
:1052B000000201F07F4040EA727070474FF0FF0C2F
:1052C0004CF4E06C1CEA11531CBF9CEA030C94459F
:1052D000C2BFDA4201EB02517047002B0DD0BCF186
:1052E000000F0FD0002A01F00041A4BF41F0E041BF
:1052F00041F07F614FF00000704701F000414FF036
:105300000000704750EA01334FF09B0C18BF4CF07F
:10531000806C7FF461AD7047FBF7F2BEFCF74EB8CE
:10532000FCF7DCB91CF4801F11D01CF4E02F03D073
:105330006FEACC31490070474FF04050EFF30082E4
:1053400022F0704242EA000282F3008870474FF078
:10535000000070470000000000000000010203048C
:1053600006070809000000000102030402400000D3
:10537000000000A00000000005400000000000C880
:10538000000000000C4000000000409C00000000F5
:10539000194000000020BCBE0000000034400000A6
:1053A000BFC91B8E00000004B5400000504BCFD099
:1053B0006607E2CF010000006C4100003E8251AA66
:1053C000DFEEA73401000000D9420000DCB5A0E206
:1053D0003A301F97FFFFFFFFB4450000FD25A0C82E
:1053E000E9A3C14FFFFFFFFFFF3F00000000008067
:1053F00000000000FF3F00000000008000000000EF
:105400005C5500080000002018000000C4010008DE
:10541000745500081800002028090000E001000869
:10542000000000000000F07FFFFFFFFFFFFFEF7FA5
:105430001001000043000000F8FFFFFF0040404063
:105440004040404040404141414141404040404057
:105450004040404040404040404040404005020203
:1054600002020202020202020202020202202020C2
:10547000202020202020200202020202020290901E
:10548000909090901010101010101010101010101C
:105490001010101010101010020202020202888870
:1054A000888888880808080808080808080808087C
:1054B0000808080808080808020202024000000064
:1054C00000000000000000000000000000000000DC
:1054D00000000000000000000000000000000000CC
:1054E00000000000000000000000000000000000BC
:1054F00000000000000000000000000000000000AC
:10550000000000000000000000000000000000009B
:10551000000000000000000000000000000000008B
:10552000000000000000000000000000000000007B
:10553000000000000000000000000000000000006B
:105540001C00000043000000F8FFFFFF0C000000FB
:105550000E0000000F0000002E0000000000000000
:105560000000000010000000010000000024F40012
:045570000000000037
:040000050800018965
:00000001FF
