:020000040800F2
:100000003809002055020008B33E0008433B0008B1
:10001000B13E0008D11F0008D545000800000000CF
:10002000000000000000000000000000F93E000891
:10003000D31F000800000000F73E0008FB3E000848
:100040006F0200086F0200086F0200086F020008CC
:100050006F0200086F0200086F0200086F020008BC
:100060006F0200086F0200086F0200086F020008AC
:100070006F0200086F0200086F0200086F0200089C
:100080006F0200086F0200086F0200086F0200088C
:100090006F0200086F0200086F0200086F0200087C
:1000A000A53F0008C93F0008BD3F0008B13F000858
:1000B000D53F0008E13F0008ED3F00086F0200084F
:1000C0006F0200086F0200086F0200086F0200084C
:1000D0006F0200086F020008B1450008BD45000826
:1000E0006F0200086F0200086F0200086F0200082C
:1000F0006F0200086F0200086F0200086F0200081C
:100100006F0200086F0200086F0200086F0200080B
:100110006F0200086F0200086F0200086F020008FB
:100120006F0200086F0200086F0200086F020008EB
:100130006F0200086F0200086F0200086F020008DB
:100140006F0200086F0200086F0200086F020008CB
:100150006F0200086F0200086F020008C94500081E
:100160006F0200086F0200086F0200086F020008AB
:100170006F0200086F0200086F0200080000000014
:100180006F020008D91F000800F002F800F052F8D2
:100190000AA090E8000C82448344AAF10107DA45E2
:1001A00001D100F047F8AFF2090EBAE80F0013F0E2
:1001B000010F18BFFB1A43F001031847F451000068
:1001C00014520000103A24BF78C878C1FAD85207F8
:1001D00024BF30C830C144BF04680C6070470000C1
:1001E0000023002400250026103A28BF78C1FBD840
:1001F000520728BF30C148BF0B607047662905F021
:100200000180632900F0A383002070471FB504F02C
:10021000ECFF00F07FF904000020002104F0C4FB93
:10022000401C60600020002104F0D4FBE0601FBD92
:1002300010B510BD00F062FD1146FFF7E7FF04F0B6
:1002400075FB00F0B4FD03B4FFF7F2FF03BC01F04F
:1002500037F800000948804709480047FEE7FEE7F5
:10026000FEE7FEE7FEE7FEE7FEE7FEE7FEE7FEE766
:1002700004480549054A064B70470000953F0008B1
:1002800089010008380300203809002038050020C3
:100290003805002010B500F03DF9001D10BD00BF6D
:1002A0000947000053EA020C00F069802DE9F04B89
:1002B0004FF00006002B1FBFB3FA83F503FA05F4D5
:1002C00024FA05F65E4012BF1643B2FA82F502FA2E
:1002D00005F4C5F120051EBF22FA05FC44EA0C0412
:1002E000203556EA044C4FEA144418BF641C4FF002
:1002F00000084FF00009904271EB030C39D300293C
:1003000019BFB1FA81F701FA07F6B0FA80F700FADF
:1003100007F6C7F120071EBF20FA07FC46EA0C06C5
:100320002037B6FBF4FCA7EB0507103F07F01F0BC7
:10033000CBF120060CFA0BFB2CFA06F644BFB346B1
:100340000026202FA4BF5E464FF0000B5BEA060C90
:1003500008BF4FF0010B19EB0B09ABFB027C48EB1C
:100360000608C01B06FB02CC0BFB03CC71EB0C0197
:10037000C1E70B46024641464846BDE8F08B13B53F
:100380004FF000004FF00001AFF30080BDE81C40CB
:10039000704700000FB4044910B503AA029800F09A
:1003A000E3FA10BC5DF814FB400000202DE9F04199
:1003B0000E460446002020622046E168884730B39C
:1003C000252805D0D4E901219047206A401CF2E796
:1003D000E168204600278847050018D0A5F14100B4
:1003E000192802D820354FF40067324629462046A6
:1003F0002760FFF703FF40B1012804D0F61D26F067
:1004000007060836D8E7361DD6E72846DAE7206A19
:10041000BDE8F08170B50C460546012A05D0287864
:10042000800600D5EA69002302E0012305E05B1C99
:10043000934202D2E05C0028F9D1A869E618C01AFC
:10044000A861286A184428622846AFF3008004E0B7
:10045000D5E9012114F8010B9047B442F8D328469E
:10046000AFF3008070BD401ECAB210F8011F8A426F
:1004700002D00029F9D1002070474FF00002042972
:10048000C0F0128010F0030C00F01B80CCF1040CC3
:10049000BCF1020F18BF00F8012BA8BF20F8022BF7
:1004A000A1EB0C0100F00DB85FEAC17C24BF00F89D
:1004B000012B00F8012B48BF00F8012B70474FF0CB
:1004C000000200B5134694469646203922BFA0E8A4
:1004D0000C50A0E80C50B1F12001BFF4F7AF0907B0
:1004E00028BFA0E80C5048BF0CC05DF804EB8900A1
:1004F00028BF40F8042B08BF704748BF20F8022BE4
:1005000011F0804F18BF00F8012B704770477047FB
:100510007047000000487047F802002070472DE93E
:10052000FF4F0C461E464FF0FF378BB0D2E900015B
:10053000DDF860800A908A46C1F30A5505B93D4648
:10054000002108464FF00000BAF1000F00F440000F
:1005500005DA00EB80004FF4400101EA50004FEA59
:100560009059B9F1010F00DDB9460A9850EA4A00E6
:100570000ED044F61050A5F2FF3545432F14B8F1C4
:10058000000F1ED07542291E1EDDC9F100021CE0BD
:10059000B8F1010F4FF0000001D0302103E0F24329
:1005A00005E02154401CB042FBDB30460022002114
:1005B00021540B99C1F80880C1E900200FB0BDE8B3
:1005C000F08FBD1B6D1CDEE74A4600DA694206A8C3
:1005D00000F0DEFA06AB93E8070003AB83E8070000
:1005E00050460A9901F0BFF88DE80700A0F50050C9
:1005F0001F3800900398002D0ADD42F21F014A4681
:100600000844002303A90390684601F06BFB09E04E
:10061000A0F500504A461F38002303A903906846FE
:1006200001F08AFB8DE807000004000C03D04FF0B6
:10063000FF30410800E01046B8F1000F03D000225F
:10064000009215461EE0751E05D400F0B1F9303257
:1006500062556D1EF9D5B3460122084302D000222F
:100660007F1C04E02078302801D100227F1E002A60
:10067000099784D01DE0112D07DA00F099F9303286
:1006800062556D1C50EA0102F5D1084302D0009872
:10069000C8B10EE00021681E05E0235C625C635473
:1006A0002254401E491C8142F7DBAB46A81B401E6A
:1006B0000990002004F80B000B98099AC0F80880F4
:1006C000C0E9002B7AE711264FF0000857E72DE923
:1006D000F04F88460446D21D22F0070191B0D1E9BF
:1006E0000001CDE90A0103F076FF02460B98C00F26
:1006F00001D02D2007E02068810701D52B2002E0E2
:10070000202101EAC000032A099001D0072A05DB55
:1007100003464146204600F0A9F90BE12078800607
:1007200001D5E06900E00620B8F1650F814606D0EA
:10073000B8F1660F18D0B8F1670F70D131E0002022
:10074000B9F1110F009001DB112301E009F1010360
:100750000AAA01A90CA8FFF7E2FEDDE90C70002649
:1007600009F10105834647E001204B4600904FF018
:1007700000470AAA01A90CA8FFF7D1FEDDE90DB0D8
:100780000C995D46002610B909F101000D18B9EB6E
:10079000050003D4C0F1FF3609F10105A5EB0900FE
:1007A0002BE0B9F1010F01DA4FF001090020B9F196
:1007B000110F0090484601DD112300E003460AAA0C
:1007C00001A90CA8FFF7ABFEDDE90C704D46002631
:1007D0008346207800070AD4AB4500DA5D4601A8BD
:1007E000012D04DD411911F8011C302907D04F45B6
:1007F00002DA17F1040F04DA012082460FE06D1EC1
:10080000EEE7002F02DCED1B3E4403E0781CA8421B
:1008100000DD7D1CB81B00F1010A4FF00047207875
:10082000000703D4AA4501DB4FF0FF3A0021B7F1DE
:10083000004F0DF143088DF8431024D002202B23E4
:10084000002F01DA7F422D230A21021EA0F10100B0
:1008500000DC5FB197FBF1FC97FBF1F201FB1C7C24
:1008600017460CF1300C08F801CDEEE7A8F10100B5
:1008700003702188090501D5452100E06521A0F11B
:10088000010800F8011C09980FA9A1EB0807FF1D3A
:1008900000B10120411901EBEA70A1693844081A3E
:1008A000401EA0612078C00602D42046AFF300802D
:1008B000099828B1D4E901219047206A401C2062A0
:1008C0002078C00622D52046AFF300801EE0002E1F
:1008D00004DBB34502DD01A8805D00E03020D4E9EF
:1008E00001219047206A401C2062761CAAF1010079
:1008F0005FEA000A0AD1FFF70DFEC0680168405C9C
:10090000D4E901219047206A401C2062281EA5F1ED
:100910000105DCDC07E0D4E9012118F8010B904760
:10092000206A401C2062381EA7F10107F3DC204634
:10093000AFF30080032011B041E610B5436913B155
:10094000AFF3008001E0FFF765FD012010BD1278D4
:1009500000F124010A7000224A700122EDE71168BB
:100960004FF0FF32E9E70000074B70B50D467B44BE
:1009700000F069F80446284600F07CF910B14FF009
:10098000FF3070BD204670BD133F00007CB50546AA
:1009900000236846CDE9003300F0C6F869462846D2
:1009A00003F056FF7CBD000000487047D8020020CD
:1009B00030B5B0F10A024FEA900E71F100034EEA31
:1009C000817EB0EB0E0061EB91014FEA101E4EEA02
:1009D000017E10EB0E0041EB11114FEA102E4EEA92
:1009E000016E10EB0E0041EB11214FEA104E4EEA62
:1009F000014E10EB0E0041EB1141401841F1000196
:100A00004FEAD00040EA41704FEAD10110EB800577
:100A10004FEA810444EA907444EB01046D1944EBFD
:100A20000404521BA3414FF0000348BF0A3200D513
:100A300030BD401C41F1000130BD000001694A1C7D
:100A400002610878704700B58FB0CDE9013100210F
:100A5000059105497944CDE9031011466846FFF731
:100A6000A5FC0FB000BD0000E5FFFFFF2DE9F04140
:100A70001F46044603260168072A01F4006004DBD0
:100A800008B116A505E016A503E008B115A500E01C
:100A900015A521F010002060A069C01EA0610FB153
:100AA000401EA0612046AFF300804FB1D4E9012180
:100AB00038469047206A401C2062C01C206206E035
:100AC000206AFAE7D4E9012115F8010B9047761E58
:100AD000F8D22046AFF30080BDE8F0814E414E00D1
:100AE0006E616E00494E4600696E66000FB40023C9
:100AF00000B589B00CA900910B99CB60214B7B44C8
:100B00000693214B7B44079304236FF00042CDE909
:100B100001321E4A7A446B4608920246002004F0D5
:100B2000D3FB09B05DF814FB70B506464FF0FF30FB
:100B300015460C46324686B00091CDE90101694662
:100B40000020049004A8FFF7D1FF02460498211862
:100B500025B108B1084600E0204628600498002826
:100B60000DD0002A02DD0098884208D03246081BCA
:100B700069460094CDE9010404A8FFF7B7FF06B069
:100B800070BD00006D0200008502000045020000FB
:100B90002DE9F047814616468AB0354878440DC89D
:100BA0008DE80D0032487844801C03AC0DC884E801
:100BB0000D0041F69B300844372190FBF1F290FB89
:100BC000F1F5A5F1800501FB12041B3C02D564423E
:100BD000012000E00020DFF898A080460027FA44BA
:100BE000AAF1BE0A0EE0E0070AD03246684607EBDB
:100BF000470101230AEB810101F09EF88DE807000F
:100C000064107F1C002CEED1194F7F44AE3F19E0D9
:100C1000E80715D007EB04100DF1180A90E80E0054
:100C20008AE80E00C068F04201D198190890324657
:100C3000012306A903A801F07FF803AB83E80700AE
:100C40006D10641C002DE3D14FF00103324669465C
:100C5000B8F1000F03A802D001F044F801E001F060
:100C60006BF8C9E90001C9F808200AB0BDE8F087AF
:100C7000F8470000007B00F0800070474FF0013C17
:100C800050F8042B51F8043B9A4221D1A2EB0C03FB
:100C9000934313EACC1317D150F8042B51F8043BBB
:100CA0009A4215D1A2EB0C03934313EACC130BD158
:100CB00050F8042B51F8043B9A4209D1A2EB0C03E3
:100CC000934313EACC13DBD04FF00000704700BF12
:100CD000D01A01BAB1FA81F101F0180122FA01F03B
:100CE000CB40C1F12001DBB2C0B2C01A2CFA01F333
:100CF000D11A914311EAC311E6D170477546FFF747
:100D000053FEAE4605006946534620F0070085466F
:100D100018B020B5FFF7ACFABDE820404FF0000650
:100D20004FF000074FF000084FF0000B21F00701D3
:100D3000AC46ACE8C009ACE8C009ACE8C009ACE816
:100D4000C0098D46704710B500F03AF8006810BD34
:100D500010B5044600F034F8046010BD10B5044628
:100D6000FFF798FA0068005D00F0010010BD4268CE
:100D700042B1016811F8013B23B1521EC0E90012D3
:100D8000184670470121C160881E704742685AB1F9
:100D9000C368016843B983688B4205D0491E521C61
:100DA000C0E90012002070474FF0FF30704710B5C7
:100DB0000446AFF300802046BDE81040FFF743BA79
:100DC00000487047D80200202DE9FF4F06468BB03F
:100DD0000878FF2806D0491C2D2805D000244FF0A4
:100DE000000908E000200CE00124F8E709EB890382
:100DF000491C00EB43090878FF28F7D114B1C9F169
:100E000000008146107800252C46AA4629462D2848
:100E100001D02B2804D1521C2D2813D0002082464B
:100E20008B461078FF280FD04FF0000C0A21521C7F
:100E3000A5FB017804FB018105FB0C11C5194BEBE7
:100E40000104EEE70120EAE7002108464FF0000028
:100E5000BAF1000F02D000EB80004008C0F38157C8
:100E6000012F01DD4FF0FF370E9955EA040009EB21
:100E700001080BD04FF0020918F5FA7F16DA4FEA95
:100E8000CA70002F706008DD012007E04FEACA70C9
:100E9000C6E900B00FB0BDE8F08F00203060FFF76A
:100EA0008FFFC0F800901821084616E0B8F5FA7FC9
:100EB00018DD002F02DAF748784401E0F64878445C
:100EC000D0E90010C6E9001040EACA707060FFF770
:100ED00077FFC0F80090142108460FB0BDE8F04F2E
:100EE00004F08DB9002108464FF00000B8F1000170
:100EF000099002DAC7F1000200E03A4601DAC8F1CF
:100F0000000106A8FFF744FE06AB93E8070003AB19
:100F100083E8070044F23E005BEA04010090584673
:100F200004D144F21E012C465D460091210C0904B7
:100F3000014306D10099240444EA15442D041039D4
:100F4000009104F07F41014306D10099240244EA54
:100F500015642D020839009104F07041014306D157
:100F60000099240144EA15742D01091F009104F031
:100F70004041014306D10099A40044EA9574AD00B4
:100F8000891E009104F00041084304D100986D19B6
:100F90006441401E00904FF001033A466846B8F1A4
:100FA000000FCDE9014503A902DD00F0DAFE01E002
:100FB00000F0ADFEBAF1000F04460D4601D084F0FA
:100FC0000044002108464FF00000099940F2FF77E5
:100FD000484010F00C0F07D124F00040284303D004
:100FE000C4F30A50B84212D1FFF7EAFEC0F80090ED
:100FF000C4F30A50B8420AD1A8487844D0E9001096
:10100000C6E9001004F000410843706042E7C6E9F9
:1010100000543FE72DE9FF4F1F464FF0000A4FF005
:10102000FF38454691B0D7E90146CDF83CA0FFF71F
:1010300071FAC0680168405C1090B96912986D1C23
:101040008847396A814688470028F6D1B9F1FF3FC1
:101050000AD0002E24F4D06411DDB9F12B0F08D092
:10106000B9F12D0F0BD102E0404615B013E744F45F
:101070008064B96912986D1C8847761E81466005A8
:1010800004A901D52D2000E02B20002E01F1010B39
:101090000DF130088DF810003FDDB9F1690F08D06F
:1010A000B9F1490F05D0B9F16E0F02D0B9F14E0F69
:1010B0001CD13B4601A8009580E85002DDE91212E0
:1010C0006FF0020004F004F9C11CCED10EE0B96942
:1010D00012986D1C884781461398761E44F400745C
:1010E00005600F98401C002E0F9016DDB9F1300FEF
:1010F000EDD0B9F1780F02D0B9F1580F0DD10F989A
:1011000001280AD13B46CDE90054DDE91212001F47
:10111000029604F0DBF8C11CA7D1109989453ED195
:1011200044F0800406E01399681CAAF1010A44F413
:1011300000740860B9696D1C1298761E88473028C3
:101140008146F0D02BE01099894505D1200603D4C3
:10115000761E44F0800418E0484603F08CFB08B388
:10116000761E0DF123018B4544F4007408D2A9F1D9
:1011700030000BF8010B200607D5AAF1010003E0AF
:10118000200602D40AF101008246A00502D5139977
:10119000681C0860B96912986D1C88478146002E4A
:1011A000D1DC53E0002E51DDB9F1650F02D0B9F169
:1011B000450F4BD1A00549D5B9696D1C1298761E13
:1011C00024F440748847002E81460CDD2B2804D07F
:1011D000B9F12D0F07D144F48074B96912986D1CD0
:1011E0008847761E8146E00501D52D2100E02B21A0
:1011F00008F8011BCDF8008021E0761E0DF13901C1
:10120000884544F400740CD2A9F1300010F0FF00BE
:1012100088F8000002D10099884509D908F1010831
:1012200006E0E00501D51E4801E042F20F7082465B
:10123000B96912986D1C8847814613980560002E85
:1012400004DD484603F017FB0028D6D1F96912984F
:101250008847FF2053468BF8000088F800000020E4
:101260000A900B9004AA0CA90AA8FFF7ADFDA005EF
:1012700002D46FF00100F8E614F0240F12D0E0075A
:101280001CD13868DDE90A12031D3B600068C0E923
:10129000001213E01C4500000E450000D243000080
:1012A000F1D8FFFF0AA9684603F0D2FAE00705D19A
:1012B0003868009A011D3960006802602846D4E64B
:1012C00001491820ABBEFEE726000200704700006F
:1012D0002DE9FF4F1F464FF03C0987B04FF0004209
:1012E000DDE9141001F10108DDF858A002EA4050D0
:1012F0000390002005908346054604460490B96992
:10130000461E08988847AAF1010A0290BAF1000F18
:101310003BDD02982E2815D0102100F016FA002887
:101320002EDB4FF0010B0599014317D0B9F1000FE7
:101330000BDB4A46C11700F0F5F905430C43A9F150
:10134000040905E0012004900BE008B145F0010517
:1013500001200590049820B9361D02E0049800B1E0
:10136000361FB969089808F101088847BBF1000FDA
:10137000AAF1010A0290C9D00999C1F80080C5E715
:101380000298702808D0502806D0F9690898884734
:10139000BBF1000F14D04FE0002002900120BBF100
:1013A000000F049009D0B969089808F1010888472E
:1013B000AAF10109B9F1000F07DCF969089888471B
:1013C0006FF001000BB0BDE8F08F2B2804D02D2862
:1013D0000CD14FF0FF300490B969089808F101086A
:1013E0008847A9F10109B9F1000FE6DD411CE4D0FD
:1013F0000A2100F0AAF90028DFDB029908F10108B0
:1014000001EB810100EB41000290B969089888471F
:101410000A2100F09AF9099AA9F10109B9F1000F1E
:10142000C2F8008001DD0028E7DAF96908988847EA
:101430000499029800FB016655EA040004D004F008
:101440004041090002D006E0039898E0A40044EA75
:101450009574AD00B61E04F00041080002D16D196C
:101460006441761E159810F0240F03D04FF00B093D
:101470005C4803E04FF028096FF07D008246564536
:1014800007DAAAEB06018944B9F1410F01DD4FF0FB
:10149000410901200021A9F1010200F043F90246AF
:1014A00028400B462140084301D0012100E00021E3
:1014B000501E029143F1FF3128402140084301D0E2
:1014C000012000E000200299834651EA0B014FD031
:1014D000002108464FF00000039900F4400039B1A4
:1014E00000EB80004FF4400100EBD07001EA600097
:1014F0008015012802DD4FF0FF3000E013D0401CC2
:1015000036D0029860B3BBF1000F0CD14A460120DF
:10151000002100F007F928402140084301D00120B4
:1015200000E00020E0B101204A46002100F0FAF876
:10153000034640190A4661412D1A8C4111D3B9F175
:10154000400F09DD159810F0240F02D0AAF13406DF
:1015500003E0AAF1170600E0761C00254FF00044D6
:1015600006E05B1E42F1FF3220EA030521EA020495
:10157000CAF10100B04206DA1B4903980843019002
:10158000002000900EE0039AC4F3D321E80A0A4336
:10159000164940EA44500A433146CDE90002684604
:1015A00003F05FF9159810F0240F0BD01598C007C1
:1015B00015D13868DDE90012031D3B600068C0E901
:1015C00000120CE002A8694603F042F91598C00722
:1015D00005D13868029A011D3960006802604046F2
:1015E000F0E6000002FCFFFF0000F07F0000F03F8B
:1015F0002DE9FF4F92461D4685B04FF00041DDE9D1
:10160000124BDDE914727F1E01EA4B50414940F054
:10161000FF4940EA0108002122F0200049280491F6
:1016200002D04E2828D04CE03BA0012607C88DE808
:101630000700A9690698641C88477F1E014606D4E6
:101640001DF8060018B121F0200181420BD0E96994
:1016500006988847032E34D0082E32D06FF0010050
:1016600009B0BDE8F08F761C032E01D0082EE0D122
:10167000601CCAF80000DCE7A9690698641C88476A
:101680007F1E2AD420F02000412826D1A96906987F
:10169000641C88477F1E20D420F020004E281CD1D7
:1016A000A9690698641C88477F1E48F4002849F4FD
:1016B0008009CAF8004001D4282806D0E9690698B4
:1016C00088475FEACB7012D022E0A9690698641CB3
:1016D00088477F1E01D4002803DAE9690698884705
:1016E000BCE72928F1D1641CCAF80040E9E71BF0E7
:1016F000240F07D028680499031D2B600068C0E9F7
:10170000001805E02868021D2A600068C0F80090F3
:101710002046A5E70000F07F494E46494E495459FE
:1017200000000000B2F120030AD5C2F1200301FA43
:1017300002F120FA03F300FA02F041EA03017047D4
:1017400000FA03F14FF0000070473A2800D2303819
:1017500020F02002412A01D3A2F13700884201D3B0
:101760004FF0FF3070475FEA400C08BF91F0000F68
:101770004FEA8C234FEAC12243EA51514FEA1C50F1
:1017800018BF00F5F0404FEA300018BF41F00041AB
:101790005FEA6C5C00F02980BCF1FF3F08BF40F0BD
:1017A00080407047130C06BF12044FF0100C4FF02E
:1017B000000C130E04BF12020CF1080C130F04BF2F
:1017C00012010CF1040C930F04BF92000CF1020CF7
:1017D000D30F04BF52000CF1010C11464FF0000270
:1017E000A0F11F00A0EB0C00704711F0004F08BFE4
:1017F000704731F000413FF4D5AF0B0C06BF090430
:101800004FF0100C4FF0000C0B0E04BF09020CF14E
:10181000080C0B0F04BF09010CF1040C8B0F04BF63
:1018200089000CF1020CCB0F04BF49000CF1010C34
:10183000CCF12003A0EB0C0022FA03F302FA0CF225
:1018400041EA030100F10100704720F07F4C80EA7B
:10185000030023F07F47ACEB070303F57C5300F054
:10186000004003F1FF032DE980494FEA154B09B40D
:101870004FEA144325EA0B4E24EA03480FF20426EC
:1018800006EB132749083E785FEA320203FB06673E
:10189000C7F5000707FB06F64FEA54374FEAD6466E
:1018A00006F1020607FB066CCCF1005C4FEA1C4710
:1018B0002CEA074C07FB06F40CFB06F504EB154677
:1018C0004FEA961634BF00204FF000404FEAD13760
:1018D00006FB07FC4FEA1C4C0CFB0BF7D21B03FB6F
:1018E0000CF761EB07010CFB0EF7B0EB074072EB56
:1018F00017420CFB08F734BFA2EB0742B2EB0742DA
:1019000061EB17414FEA0C444FEA910706FB07FCD5
:101910004FEA1C4C0CFB0BF7B0EBC74072EB573295
:1019200003FB0CF734BFA2EBC742B2EBC74261EB3B
:1019300057310CFB0EF7B0EBC70072EB57720CFB84
:1019400008F734BFA2EBC702B2EBC70261EB5771D5
:10195000039F4FEA816141EA921104EBCC044FEA04
:10196000D1374FEA826206FB07FC42EA90124FEA47
:1019700080604FEA1C4C0CFB0BF7D21B03FB0CF7EF
:1019800061EB07010CFB0EF7B0EB074072EB17425F
:101990000CFB08F734BFA2EB0742B2EB074261EB46
:1019A00017414FEA8C554FEA910704EB9C2406FB44
:1019B00007FC4FEA1C4C0CFB0BF7B0EBC74072EB7B
:1019C000573203FB0CF734BFA2EBC742B2EBC7425E
:1019D00061EB57310CFB0EF7B0EBC70072EB57729F
:1019E0000CFB08F734BFA2EBC702B2EBC70261EBF6
:1019F000577115EB4C254FEA816141EA92114FEA8C
:101A000082624FEAD13742EA901206FB07FC44F1AA
:101A100000044FEA80604FEA1C4C0CFB0BF7D21B12
:101A200003FB0CF761EB07010CFB0EF7B0EB074073
:101A300072EB17420CFB08F734BFA2EB0742B2EB84
:101A4000074261EB174115EB1C154FEA813141EA62
:101A500092414FEA823242EA90424FEA80304FEAA6
:101A60000C7644F1000448EA03434EEA0B484FF079
:101A7000000EB2EB080C71EB030724BF6246394637
:101A80004EEB0E0E4FF0000B0018524149414BEB4C
:101A90000B0BB2EB080C71EB03077BF1000B24BFBF
:101AA000624639464EEB0E0E4FF0000B00185241C5
:101AB00049414BEB0B0BB2EB080C71EB03077BF1CD
:101AC000000B24BF624639464EEB0E0E51EA020768
:101AD00018BF46F0010616EB0E7655F1000254F1E0
:101AE000000103D5BDE88901BDE80088BDE8890192
:101AF000BDE80048B619524141EB0101A3F10103D1
:101B0000704780807F7E7D7C7B7A7978777676756A
:101B10007473727171706F6E6E6D6C6C6B6A6A69E2
:101B20006868676666656464636362616160605F7C
:101B30005F5E5E5D5D5C5C5B5B5A5A5959585857F5
:101B4000575656555555545453535252525151505D
:101B500050504F4F4F4E4E4D4D4D4C4C4C4B4B4BB0
:101B60004A4A4A49494948484847474747464646F6
:101B70004545454444444443434343424242424131
:101B80004141000046EA0646A3F570534FEA164667
:101B900046EA42564FEAD22242EA415210B54FEA93
:101BA000D121A3F1010300F02FF820F0004000F153
:101BB000020C00F0004701EB00501146BCF5006F2D
:101BC00040EA070000D210BDBAF1000F0AD01CB5E0
:101BD00003B44FF004004FF004014FF000000FBCBD
:101BE000BDE810404FF00001BBF1010FB9BF044840
:101BF0004FF0FF310348002140EA070010BD00BF4D
:101C0000FFFFEF7F0000F07F002B9C4630D4770071
:101C10002BD01CB54FEA370703B44FF010004FF03C
:101C20001001BAF1000F06D0BCF1000FDCBF40F08C
:101C3000080040F008014FF000000FBCBDE8104064
:101C40000BF1010BBBF1010F08BF5FEA170722BFC1
:101C500012F1010211F101014FF0004143F10003C3
:101C600000F0004043EA00007047F9D35708D0E77E
:101C700046EA064613F1400F4FEA16461FDD13F100
:101C8000200FDFBF16430A46002120335B42BED03F
:101C9000C3F1200746EA064602FA07F74FEA16465E
:101CA00046EA0706C3F1200722FA03F201FA07F712
:101CB00021FA03F14FF0000342EA0702A7E746EAE0
:101CC000020646EA06464FEA164646EA0106BCBF49
:101CD00046EA0646360C4FF000034FF000024FF084
:101CE000000194E72DE9804C9A46934670B491E840
:101CF000380007C831EA400C48BF34EA430C03D52A
:101D0000FFF7A3FDFFF780FFF0BCBDE8008C2DE9D5
:101D1000804C9A46934670B491E8380007C831EA7F
:101D2000400C48BF34EA430C03D5FFF78EFDFFF7A4
:101D300029FFF0BCBDE8008C2DE9804C9A46934603
:101D400070B491E8380007C810F0804F08BF13F056
:101D5000804F03D100F01AF8FFF756FFF0BCBDE842
:101D6000008C2DE9804C9A46934670B491E8380077
:101D700007C810F0804F08BF13F0804F03D100F068
:101D800005F8FFF7FFFEF0BCBDE8008C20F07F47B0
:101D900080EA030023F07F4C07EB0C03A3F57C5390
:101DA00000F00040A3F1FE0392F0000F00F0B380BA
:101DB00095F0000F00F077802DE901494FEA1140BE
:101DC0004FEA144621EA004800FB06FC24EA0647D5
:101DD00008FB06F607FB08F800FB07F718EB0648B8
:101DE0004CEB164C4FEA124B18EB07484FEA1546DE
:101DF0004CEB174022EA0B4E0BFB06FC25EA06478C
:101E00000EFB06F607FB0EFE0BFB07F71EEB064E5E
:101E10004CEB164C4FF000061EEB074E4CEB174BED
:101E200018EB0B0840F1000018EB0E0B58EB000804
:101E300040F100008F1A4FF000013CBFC943661B00
:101E400014BFB5EB040C00213CBFC943F61B4FEA9D
:101E500017444EEA8E0E27EA04454FEA1C4704FB5E
:101E600007622CEA074C05FB07F70CFB05F604FBA1
:101E70000CFC16EB074642EB174216EB0C4642EB06
:101E80001C421BEB060658EB0202414146EA9E0645
:101E900001D5BDE80189B619524141EB0101A3F119
:101EA0000103BDE801894FEA14454FEA114724EACE
:101EB000054621EA074C05FB07F406FB07F70CFB78
:101EC00006F105FB0CFC11EB074144EB17444FEA0C
:101ED000124711EB0C4144EB1C4422EA074C05FB72
:101EE00007F206FB07F70CFB06F605FB0CFC16EBEE
:101EF000074642EB174216EB0C4642EB1C456A18AC
:101F000054F1000148BF7047B619524141EB01013D
:101F1000A3F10103704795F0000F37D04FEA11424B
:101F20004FEA144721EA024624EA074C02FB07F174
:101F300006FB07F70CFB06F402FB0CFC14EB074452
:101F400041EB17414FEA154714EB0C4441EB1C41A0
:101F500025EA074C02FB07F506FB07F70CFB06F624
:101F600002FB0CFC16EB074645EB174516EB0C463F
:101F700045EB1C42121951F1000148BF7047B619D8
:101F8000524141EB0101A3F1010370474FEA1445AF
:101F90004FEA114724EA054621EA074C05FB07F101
:101FA00006FB07F70CFB06F24FF0000605FB0CFCE6
:101FB00012EB074241EB174112EB0C4251EB1C4173
:101FC00048BF7047921841EB0101A3F1010370472C
:101FD000FEE7704772B6FEE770472DE9F041044610
:101FE000876D00F053F9064694F835000025022865
:101FF00006D08020606584F834500120BDE8F0816F
:102000002068016821F0160101602068416921F013
:1020100080014161206C08B9A06C20B12068016882
:1020200021F0080101602068016821F001010160D0
:102030000CE000F02BF9801B052807D920206065F3
:10204000032084F8350084F83450D7E7206800680E
:10205000C007EED194F85C103F208840B8600120A2
:1020600084F8350084F834500020C7E790F8351024
:10207000022903D08021416501207047052180F8A5
:1020800035100068016821F00101016000207047EF
:102090002DE9F84FDFF8BCA10022012503264FF0FF
:1020A0000F090AF1040BAAF1040E00BF0B6805FA30
:1020B00002F42340A34270D10F7907F00307012FE8
:1020C00001D0022F16D187684FEA420806FA08FCB1
:1020D00027EA0C07D1F80CC00CFA08FC4CEA070CF4
:1020E000C0F808C04768A7430C79C4F300149440B3
:1020F0003C4344600C79E443A4070AD0C4684FEA27
:10210000420C06FA0CF7BC438F6807FA0CF727431A
:10211000C7600C7904F00304022C12D1D40800EB40
:10212000840CDCF820405707FF0E09FA07F824EA70
:102130000804D1F8108008FA07F848EA0408CCF837
:10214000208004684FEA420C06FA0CF7BC430F7972
:1021500007F0030707FA0CF7274307604C6814F4ED
:10216000403F70D03C4C276847F480472760246884
:1021700022F0030704F480440094384C07EB040C6D
:10218000DCF8084897074FEA177809FA08F7BC43C4
:10219000334FB84202D1002724E054E0314FB84217
:1021A00001D101271EE0304FB84201D1022719E0CA
:1021B0002E4FB84201D1032714E02D4FB84201D170
:1021C00004270FE02B4FB84201D105270AE02A4F20
:1021D000B84201D1062705E0284FB84201D10727B0
:1021E00000E0082707FA08F72743CCF80878DAF860
:1021F00000405746D1F804C09C435FEACC2C00D580
:102200001C433C60DBF800405F46D1F804C09C43AF
:102210005FEA8C2C00D51C433C60DEF8004077461A
:10222000D1F804C09C435FEA8C3C00D51C433C6061
:10223000084F083F3C68D1F804C09C435FEACC3C9F
:1022400000D51C433C60521C102AFFF42FAFBDE8A0
:10225000F88F0000083C0140443802400030014043
:10226000000002400004024000080240000C02404E
:10227000001002400014024000180240001C0240FE
:102280000AB1816170470904FBE7000001488068DA
:10229000704700004400002070B5040025D094F879
:1022A0003D00002520B984F83C50204600F0B8F8E5
:1022B000242084F83D002068016821F001010160BC
:1022C0002068016841F4004101602068016821F440
:1022D0000041016000F018FA4D4A6168914201D84E
:1022E0004C4900E04C49884201D2012070BD4B4965
:1022F0002368B0FBF1F15E6826F03F060E435E6096
:102300006368934206D94FF4967359434FF47A7336
:10231000B1FBF3F12368491C1E6A26F03F063143E6
:1023200019626168914210D84900401EB0FBF1F279
:10233000521CC2F30B02042A01D2042022E0B0FB9B
:10234000F1F0401CC0F30B001CE0A268F2B301EBFB
:10235000C10303EB0116431EB3FBF6F35B1C43F40E
:1023600080431B0549D092B301EBC10202EB01117E
:10237000401EB0FBF1F0401CC0F30B0040F4804065
:1023800040F400402168CA694CF6FF739A43104339
:10239000C861D4E9071001432068026822F0C00236
:1023A00011430160D4E9030101432068826848F2C7
:1023B000FF339A4311438160D4E905010843216842
:1023C000CA6822F0FF021043C86001E00EE016E088
:1023D0002068016841F0010101602564202084F833
:1023E0003D00256384F83E50002070BD01EB41069E
:1023F000431EB3FBF6F35B1CB3E70120C2E701EB1E
:102400004101401EB0FBF1F0401CC0F30B00B7E7E8
:10241000A086010080841E0000093D0040420F009C
:1024200010B586B0044614216846FEF748F81349F3
:102430002068884220D112480021026842F002023E
:102440000260006800F002000590C0200090122099
:10245000CDE9010103200390042004906946094856
:10246000FFF716FE06481030016841F400110160C4
:10247000006800F40010059006B010BD0054004044
:10248000303802400004024002488168027811445A
:1024900081607047440000200B4810B5016841F48A
:1024A00000710160016841F480610160016841F4DC
:1024B00080710160032000F07BF8002000F006F836
:1024C00000F024F8002010BD003C024070B50D4D16
:1024D00004464FF47A712878B1FBF0F00A49096894
:1024E000B1FBF0F000F016FB48B9102C07D2002227
:1024F0002146501E00F03CF800206C6070BD0120A9
:1025000070BD00004400002050000020104808B5B5
:10251000016841F480410160006800F4804000904F
:102520000B48001F016841F080510160006800F015
:1025300080500090052000F03BF80022022151203D
:1025400000F016F8BDE80840512000F003B8000084
:1025500044380240002809DB00F01F0201219140AD
:102560004009800000F1E020C0F800117047000031
:10257000F0B40E4B1B680C46C3F30223C3F10705EE
:10258000042D00D90425191D072901D2002300E0DC
:10259000DB1E012606FA05F1491E214099409E40A6
:1025A000761E16403143F0BC02F02DB80CED00E071
:1025B000064900F0070208684FF6FF03184040EA9A
:1025C0000220034A10430860704700000CED00E051
:1025D0000000FA052DE9F0470E46050065D0DFF84A
:1025E0001481D8F80000F7B200F00700B04207D21B
:1025F00088F80070D8F8000000F00700B04254D10D
:1026000028683D4C810712D5400703D5206840F467
:10261000E05020602878000703D5206840F460402F
:1026200020602068A96820F0F00008432060287826
:10263000C0072DD0304968680839012812D0022817
:1026400013D0032811D00968890700292DDA2168E1
:1026500021F0030101432160FFF718FE814641F29A
:10266000883A0EE009688903EFE709688901ECE719
:10267000FFF70CFEA0EB0901514502D90320BDE88C
:10268000F0872068696800F00C00B0EB810FEFD193
:10269000D8F80010404601F00701B14207D9077091
:1026A000006800F00700B04201D00120E7E7287879
:1026B000400705D52068E96820F4E0500843206011
:1026C0002878000706D52068296920F4604040EA90
:1026D000C100206000F038F82168084AC1F30311F6
:1026E000515CC8400649086006480068FFF7EEFEE6
:1026F0000020C4E7003C02400838024004530008B0
:10270000500000204800002004480549006809687E
:10271000044AC1F38221515CC84070475000002038
:102720000838024014530008044805490068096845
:10273000044AC1F34231515CC84070475000002048
:102740000838024014530008154810B5006810F00E
:102750000C02144813D04110042A0FD0082A0ED1BD
:102760000F4C241F2268236802F03F025B0207D54A
:102770002068C0F38810A0FB010106E0084610BDE8
:102780002168C1F38811A1FB00010023FDF78AFD38
:102790002168C1F30141491C4900B0FBF1F010BDB3
:1027A000083802400024F4002DE9F84F04006ED0F0
:1027B0002078DFF84C93C007A9F104054AD009F14D
:1027C00004000168C1F38101012908D00068C0F349
:1027D000810002280AD1D9F80000400206D52868F5
:1027E000800337D560680028E1D033E06068B0F539
:1027F000803F10D0B0F5A02F286810D020F4803092
:102800002860286820F4802028606068A8B1FFF75D
:102810003DFD06460DE0286840F48030F4E740F4C2
:1028200080202860F7E700BFFFF730FD801B642899
:1028300073D828688003F7D50CE0FFF727FD06461C
:1028400005E000BFFFF722FD801B6428F0D8286850
:102850008003F7D42078DFF8AC8280074FF0000ABD
:102860003ED5A748001D016811F00C0F08D0006884
:10287000C0F3810002280BD1D9F80000400207D430
:102880002868800716D5E068012800D112E033E1FE
:10289000E068B8B10120C8F80000FFF7F7FC064671
:1028A00005E000BFFFF7F2FC801B0228C0D82868B3
:1028B0008007F7D52868216920F0F80040EAC100B8
:1028C00028600DE0C8F800A0FFF7E0FC064604E031
:1028D000FFF7DCFC801B02281FD828688007F7D48C
:1028E0002078000722D5864F87486169703771B11B
:1028F00001210160FFF7CAFC064604E0FFF7C6FCB1
:10290000801B022809D838688007F7D50EE0C0F888
:1029100000A0FFF7BBFC064605E082E0FFF7B6FC2F
:10292000801B02287DD838688007F7D420784007BC
:1029300068D5DFF8CCB100270BF13C0BDBF80000C9
:10294000C0000BD4DBF8001041F08051CBF8001030
:10295000DBF80000012700F0805000906B4E3068DB
:10296000C00510D4306840F480703060FFF78EFCF2
:10297000009005E0FFF78AFC0099401A022850D821
:102980003068C005F6D55E4EA0686C3601280FD0C1
:102990000528306810D020F001003060306820F049
:1029A00004003060A068B8B1FFF770FC00900FE041
:1029B000306840F00100F4E740F004003060F7E7D1
:1029C000FFF764FC0099411A41F28830814266D8D1
:1029D00030688007F4D50EE0FFF758FC009007E060
:1029E000FFF754FC0099411A41F28830814256D8D1
:1029F00030688007F4D42FB1DBF8001021F080514B
:102A0000CBF80010A069C8B33D49091D0968C1F39E
:102A1000810102294AD00228504607D0C8F8600038
:102A200000E03CE0FFF732FC04463BE04746C8F8D4
:102A30006000FFF72BFC064605E000BFFFF726FC11
:102A4000801B02282BD828688001F7D4D4E907011D
:102A50000843A16A2E4A490802EB0141626A41EA31
:102A60008211084394F82C1040EA0161C9F8001063
:102A700001203866FFF70AFC044606E03EE000BF8E
:102A8000FFF704FC001B022809D828688001F7D54D
:102A900034E000BFFFF7FAFB001B022802D9032035
:102AA000BDE8F88F28688001F4D427E00128F7D02A
:102AB000D9F80000E26900F4800191421CD1226A39
:102AC00000F03F01914217D147F6C071626A0140A0
:102AD000B1EB821F10D1A26A4FF0FF3300F44031F6
:102AE00003EB5202B1EB024F06D194F82C1000F028
:102AF0007060B0EB016F01D00120D1E70020CFE77B
:102B00000438024000004742800E474200700040F7
:102B10000000FFFF10B5401EB0F1807F01D30120FF
:102B200010BD4FF0E02460610F21601701F06BFDD4
:102B30000020A06107202061002010BD7047704771
:102B400070B590F83C20012A32D0012480F83C4036
:102B5000022280F83D2003685A689D6822F07006C2
:102B60000A6832435A60134B02689A4214D0B2F199
:102B7000804F11D0104B9A420ED0104B9A420BD07E
:102B80000F4B9A4208D00F4B9A4205D00E4B9A42F7
:102B900002D00E4B9A4204D1496825F080031943B4
:102BA000916080F83D40002180F83C10084670BDDF
:102BB000022070BD000001400004004000080040F9
:102BC000000C00400004014000400140001800409B
:102BD00010B5040003D094F83D0010B107E00120C7
:102BE00010BD002084F83C00204600F01FF80220B1
:102BF00084F83D00211D206801F0FEF9012084F8D1
:102C0000460084F83E0084F83F0084F8400084F8D1
:102C1000410084F8420084F8430084F8440084F8BA
:102C2000450084F83D00002010BD000008B5006894
:102C30002149884227D12148016841F00101016002
:102C40000068002200F00100009001211820FFF729
:102C50008FFC1820FFF77EFC002201211920FFF7CE
:102C600087FC1920FFF776FC002201211A20FFF7CC
:102C70007FFC1A20FFF76EFC002201211B20FFF7CA
:102C800077FC1B2012E00E49884213D10B48001F2D
:102C9000016841F0040101600068002200F00400B6
:102CA000009001211E20FFF763FC1E20BDE80840B4
:102CB000FFF750BC08BD000000000140443802404E
:102CC0000008004090F83D10012901D00120704714
:102CD000022180F83D1000681149884214D0B0F1FB
:102CE000804F11D00F4988420ED00F4988420BD037
:102CF0000E49884208D00E49884205D00D498842C5
:102D000002D00D49884204D1816801F007010629EB
:102D100003D0016841F0010101600020704700000C
:102D2000000001400004004000080040000C00408A
:102D300000040140004001400018004090F83D10A0
:102D4000012901D001207047022180F83D1001685F
:102D5000CA6842F00102CA6000681149884214D072
:102D6000B0F1804F11D00F4988420ED00E498842F1
:102D70000BD00E49884208D00D49884205D00D4934
:102D8000884202D00C49884204D1816801F00701D1
:102D9000062903D0016841F001010160002070475D
:102DA000000001400004004000080040000C00400A
:102DB00000040140004001400018004070B5044686
:102DC00090F83C000025012817D0012684F83C60CB
:102DD000022084F83D002068826822F0770222F405
:102DE0007F4282600868502838D00DDC20284FD000
:102DF00005DC90B3102811D14AE0022070BD3028C4
:102E000046D040280AD13BE060282FD070280DD052
:102E1000B0F5805F03D0B0F5005F12D0012584F8D3
:102E20003D60002084F83C00284670BDCB68D1E9A5
:102E30000121206801F059F92068816841F077018B
:102E400009E0CB68D1E90121206801F04EF9206842
:102E5000816841F480418160E1E719E0CA6849680E
:102E6000206801F017FA5021206806E0CA68496816
:102E7000206801F020FA6021206801F040F9CEE7D7
:102E8000CA684968206801F005FA40212068F4E723
:102E9000226801461046F0E72DE9F0410D46040096
:102EA00003D094F83D0018B108E00120BDE8F0819E
:102EB000002084F83C00204600F040F8022084F80E
:102EC0003D002068816844F2070291438160211D22
:102ED000206801F091F8226890689169166A2B6861
:102EE000AF69034340F20330814341EA0721A868F8
:102EF000EF6908434FF6FC418843E96840EA072040
:102F0000014328692F6A000140EA073008436968D5
:102F10006D6926F0AA0646EA0515294393602268E2
:102F2000906154F8460B0162012004F81F09E07516
:102F30002076E0762077A0750020B7E770B586B0E0
:102F4000044614216846FDF7BAFA294A2568002389
:102F50002749103A02242748B5F1804F26D0264E43
:102F6000B54221D10D6845F002050D60096801F0F8
:102F700002010591116841F001011160116801F031
:102F800001010591C0210091CDE90143CDE9033450
:102F90006946FFF77DF8002201211D20FFF7E8FABE
:102FA0005FF01D00FFF7D6FA06B070BD0D6845F062
:102FB00001050D60096801F001010591116841F0FA
:102FC00001011160116801F00101059103210091D7
:102FD000CDE901430121CDE903316946FFF758F8F6
:102FE000002201211C20FFF7C3FA1C20DAE70000B1
:102FF00040380240000002400004004070B590F8E4
:103000003E60044690F83F5090F8423090F84320DC
:10301000022021B104290ED0012E1BD114E0012E73
:1030200018D1012B16D184F83E0084F84200012209
:103030000021206820E0012D0CD1012A0AD184F85A
:103040003F0084F8430014E0012D03D1012B01D18E
:10305000012A01D0012070BD84F83E0084F83F00B1
:1030600084F8420084F8430001220021206801F026
:103070002FF801220421206801F02AF82068016855
:1030800041F001010160002070BD70472DE9F04161
:1030900004460068C66805694FF00007A90713D504
:1030A000B10711D5F91E01610120207720688069E0
:1030B0008007204602D0FFF7E8FF04E000F0A8F800
:1030C000204600F03AF92777680716D5700714D51F
:1030D00021686FF004000861022020772068806971
:1030E00010F4407F204602D0FFF7CFFF04E000F04D
:1030F0008FF8204600F021F92777280715D53007EB
:1031000013D521686FF0080008610420207720683B
:10311000C0698007204602D0FFF7B7FF04E000F047
:1031200077F8204600F009F92777E80616D5F0066B
:1031300014D521686FF010000861082020772068FE
:10314000C06910F4407F204602D0FFF79EFF04E0E4
:1031500000F05EF8204600F0F0F82777E80708D086
:10316000F00706D021686FF001000861204600F0EA
:1031700049F9280608D5300606D521686FF0800089
:1031800008612046FFF7DAFC680608D5700606D508
:1031900021686FF040000861204600F0E9F9A806B8
:1031A0000AD5B00608D521686FF0200008612046D6
:1031B000BDE8F041FFF7C3BCBDE8F08110B586B0B3
:1031C000044614216846FDF77AF90E4920688842C2
:1031D00015D10D480021026842F008020260006823
:1031E00000F0080005904FF4405000900220CDE917
:1031F0000101CDE9031069460448FEF749FF06B016
:1032000010BD00000008004030380240000C0240B1
:10321000704770B5044690F83C0000260D46012822
:103220000FD0012084F83C006AB1042A1DD0082A7E
:103230002FD00C2A3FD00126002084F83C003046D5
:1032400070BD022070BD206800F062FF20688169B7
:1032500041F0080181612068816921F004018161E8
:10326000206881692A69114311E0206800F080FF1D
:103270002068816941F4006181612068816921F4DD
:1032800080618161206881692A6941EA0221816146
:10329000D2E7206800F0A2FF2068C16941F0080170
:1032A000C1612068C16921F00401C1612068C16960
:1032B0002A69114311E0206800F0C4FF2068C16949
:1032C00041F40061C1612068C16921F48061C1617C
:1032D0002068C1692A6941EA0221C161ACE710B5E1
:1032E000040003D094F83D0010B107E0012010BDA8
:1032F000002084F83C00204600F01EF8022084F8EC
:103300003D00211D206800F077FE012084F8460072
:1033100084F83E0084F83F0084F8400084F84100BF
:1033200084F8420084F8430084F8440084F845009F
:1033300084F83D00002010BD7047704710B504466A
:10334000022249B104290ED0082913D094F8410073
:10335000012816D0012010BD94F83E000128F9D1B3
:1033600084F83E200FE094F83F000128F2D184F861
:103370003F2008E094F840000128EBD184F8402079
:1033800001E084F841200122206800F0A1FE1649E6
:103390002068164A884201D0904203D1436C43F41E
:1033A000004343642068884213D0B0F1804F10D0AE
:1033B0000F4988420DD00F4988420AD00E498842F1
:1033C00007D0904205D00D49884202D00C4988426E
:1033D00004D1816801F00701062903D0016841F09A
:1033E00001010160002010BD000001400004014007
:1033F0000004004000080040000C00400040014074
:10340000001800402DE9F0414B492DED048B006878
:1034100088427BD149480068406A494C80B200EE3E
:10342000100A2080B8EE408A84ED038A94ED010AE8
:10343000B4EEC08AF1EE10FA0AD2F7EE000AC4ED3B
:10344000040A38EE400ADFED3F0A30EE200A01E0C0
:1034500038EE400A84ED050A10EE100A01F054FE21
:103460009FED391B53EC112B01F030FC41EC190B93
:10347000A06801F049FE9FED361B53EC112B01F0C3
:1034800025FC53EC192B01F0EDFA01F0B9FA00EE2E
:10349000100A2B4884ED020A84ED018A203000F0E6
:1034A00009FD2D4D84ED060A2868406B2B4900EE7E
:1034B000900A10EE100A9FED2A8AF8EE600A884200
:1034C000C4ED070A01DDB0EE480A10EE100A2549E6
:1034D00084ED060A884201D99FED230A4FF400517A
:1034E0004F10B5EEC00A214EF1EE10FA84ED060A37
:1034F0004FF0000230460ADDFEF7C2FE01223946D7
:103500003046FEF7BDFE94ED060A0BE010E0FEF734
:10351000B7FE012239463046FEF7B2FE94ED060AA8
:1035200030EE080A2968BCEEC00A10EE100A4863A3
:10353000BDEC048BBDE8F081000001403C0100209F
:103540000000002000FF7F47333333333333D33F52
:10355000666666666666E63F8401002000401C469B
:1035600000401C4600401CC600401CC6000402402F
:103570007047704770470000F8B501680446086856
:10358000CA684B6910F00F0F4FF0000559D003F0D7
:10359000010602F49077374365D0C10705D0D10505
:1035A00003D5616C41F001016164410705D5D9077C
:1035B00003D0616C41F002016164810705D5D90730
:1035C00003D0616C41F004016164010707D502F08A
:1035D0002001314303D0616C41F008016164616CEA
:1035E00000293AD0800604D5900602D5204600F086
:1035F000A3FE20684069616CC0F38010090700D405
:1036000060B3204600F071FE20684069400621D575
:103610002068143050E8001F21F0400140E80012FB
:10362000002AF5D1E06BA8B16E490165E06BFEF7A9
:103630001DFD002811D0E06B016D01B0BDE8F04028
:10364000084783060FD593060DD52046BDE8F84000
:1036500000F072BE2046FFF78DFFF8BD2046FFF751
:1036600089FF6564F8BD266B2023012E7DD1C60637
:103670007BD5D60679D508684868009048694FF030
:103680000206400641D5E16B086840680004000C62
:10369000E8D0A28D8242E5D9E085C869B0F5807F87
:1036A0002DD020680C3050E8001F21F4807140E8D4
:1036B0000012002AF5D12068143050E8001F21F0D4
:1036C000010140E80012002AF5D12068143050E8CA
:1036D000001F21F0400140E80012002AF5D184F8D3
:1036E0004230256320680C3050E8001F21F01001A3
:1036F00040E80012002AF5D1E06BFEF76EFC66632D
:10370000A08DE18D401A81B22AE0A08DE18D401A92
:1037100081B2E08D0028A5D00029A3D022680C3208
:1037200052E8000F20F4907042E80007002FF5D116
:103730002068143050E8002F22F0010240E80027F2
:10374000002FF5D184F84230256320680C3050E812
:10375000002F22F0100240E80023002BF5D1666311
:103760002046FFF706FFF8BDFFE705062BD5150637
:1037700029D594F841002128F5D1A068B0F5805FE3
:1037800001D12069B0B1206A411C21622168007812
:103790004860E08C401E0004000CE084E3D1206807
:1037A000C16821F08001C1602068C16841F040011A
:1037B000C160D8E7206A0088C0F308004860206A2A
:1037C000801C2062E5E74006CDD55006CBD5CA68FF
:1037D000204622F04002CA6084F8413000F0B0F97F
:1037E000C1E70000DB42000870B5040004D094F883
:1037F0004100002510B106E0012070BD84F8405062
:10380000204600F023F8242084F841002068C16895
:1038100021F40051C160204600F0F0FD20680169EC
:1038200021F4904101612068416921F02A01416140
:103830002068C16841F40051C1606564202084F8AB
:10384000410084F842006563002070BDF0B587B088
:10385000044614216846FCF732FE3E483C4F25687A
:1038600000213C4A1038022303240726BD4220D100
:10387000156845F400351560126802F400320592AF
:10388000026842F001020260006802AD00F001002F
:10389000059085E852000C20CDE9000369462E48CA
:1038A000FEF7F6FB002201212620FEF761FE26200E
:1038B00023E02A4FBD4224D1156845F480251560C8
:1038C000126802F480220592026842F0020202604D
:1038D000006802AD00F00200059085E852004FF448
:1038E0004060CDE9000369461D48FEF7D1FB002288
:1038F00002212720FEF73CFE2720FEF72BFE07B013
:10390000F0BD184A9542FAD1124A121D156845F0C9
:1039100020051560126802F020020592026842F04C
:10392000040202600068CDE9021400F00400059072
:10393000C020CDE900030820049069460A48FEF73C
:10394000A7FB002202214720FEF712FE4720D4E702
:10395000004400404038024000000240004800405F
:1039600000040240001401400008024090F8423078
:10397000202B01D00220704721B11AB1002303632C
:1039800000F0C2BD012070472DE9F0478246006873
:103990003B4988B088422DD1012204213948FEF7E5
:1039A0006FFC3A4DDFF8E0800026287818F8001008
:1039B0003B2911D0401CC0B22870322800D32E7091
:1039C0006878002852D0304800272321FCF74BFDAF
:1039D00028B1441CE9462DE001206870F3E72E7001
:1039E0006E7032212848FCF748FD414601225046BE
:1039F000FFF7BCFF08B0BDE8F087641C03E000BF20
:103A0000FCF748FC00682178415C11F0980FF4D174
:103A100006A9204600F0ECFE09EB870080ED000AC5
:103A20002046069CA04209D07F1C00E0641C207840
:103A30002C28FBD0207808B1062FE1DB00240DE014
:103A400059F8240001F060FB41EC100B04F1410136
:103A500053EC102B0EA0FCF79DFC641CBC42EFDB6A
:103A60002E706E7032210848FCF707FD297808B0E7
:103A700041445046BDE8F0470122FFF777BF000000
:103A80000048004000040240A4020020540000202E
:103A900056616C75652025633A2025660A00000092
:103AA0002DE9F843044690F84100984616460D4625
:103AB000202802D00220BDE8F88385B17EB1002025
:103AC0006064212084F84100FEF7E0FBA684814673
:103AD000E684A0682027B0F5805F02D003E00120D3
:103AE000E9E7206910B12E4600250EE000260CE023
:103AF0008021204600F023FDA8B9C6B116F8010BBD
:103B000021684860E08C401EE084E08C4B464FF01A
:103B10000002CDF800800028EAD14FF04001204695
:103B200000F00DFD40B184F841700320C3E735F883
:103B3000020BC0F30800E3E784F841700020BAE705
:103B40007047FEE770B586B014216846FCF7B7FCF5
:103B500023480024016841F080010160016801F000
:103B600080010591016841F001010160016801F0E7
:103B700001010591016841F002010160016801F055
:103B800002010591016841F008010160016801F03E
:103B900008010591016841F0040101600068114EBF
:103BA00000F00400059000224FF206013046FEF7B7
:103BB00067FB012543F20600CDE900056946304662
:103BC000CDE90245FEF764FA4FF440400090CDE99C
:103BD0000154694630460394FEF75AFA06B070BDA8
:103BE00030380240000402400D4810B50B49016016
:103BF0000C49416000214FF480428160C0E903120A
:103C000041618161C1610162FEF746FB002803D07A
:103C1000BDE81040FEF7DEB910BD000000540040C2
:103C200058000020A086010010B586B00024174877
:103C30000094019402940394049413490594016040
:103C40004AF20F41C0E90114C721C0E903144461DD
:103C50008461FEF7BDFF08B1FEF7BCF94FF4805058
:103C6000009069460948FFF7A9F808B1FEF7B2F9D4
:103C7000049404A905480594FEF762FF002801D0CA
:103C8000FEF7A8F906B010BD00000140AC0000200E
:103C900010B58CB024216846FCF711FC00241548AF
:103CA00009944FF080410A94C0E900144FF6FF7167
:103CB000C0E90241046184610320CDE900040120D0
:103CC000CDE902040494CDE905400794694609480A
:103CD0000894FFF7E1F808B1FEF77CF9099409A907
:103CE00004480A94FEF72CFF002801D0FEF772F971
:103CF0000CB010BDF400002010B58CB02421684633
:103D0000FCF7DDFB00241548099413490A94C0E927
:103D100000144FF6FF71C0E9024104618461012083
:103D2000CDE90004CDE902040494CDE905400794EF
:103D300069460A480894FFF7AFF808B1FEF74AF958
:103D4000099409A905480A94FEF7FAFE002801D053
:103D5000FEF740F90CB010BD000400403C0100200B
:103D600010B58EB000240794089409940A940B941B
:103D70001C2168460C94FCF7A2FB224820490160F4
:103D8000A721C0E9011442F20F71C0E90314846154
:103D9000FEF71EFF08B1FEF71DF94FF480500790A3
:103DA00007A91848FFF70AF808B1FEF713F91548F4
:103DB000FFF795FA08B1FEF70DF90B940BA911481E
:103DC0000C94FEF7BDFE08B1FEF704F96020CDE9C2
:103DD00000040294002269460A480494FFF719FA85
:103DE00008B1FEF7F7F8042269460648FFF711FA12
:103DF00008B1FEF7EFF80348FFF7E0F90EB010BD89
:103E000000080040840100200C4810B50A490160F8
:103E10004FF4E1314160002181600C22C160C0E9B2
:103E200004128161C161FFF7DFFC002803D0BDE807
:103E30001040FEF7CFB810BD00440040CC01002078
:103E40000C4810B50A4901604FF4E131416000218E
:103E500081600C22C160C0E904128161C161FFF779
:103E6000C3FC002803D0BDE81040FEF7B3B810BD76
:103E700000480040140200200C4810B50A490160B7
:103E80004FF4E1314160002181600C22C160C0E942
:103E900004128161C161FFF7A7FC002803D0BDE8CF
:103EA0001040FEF797B810BD001401405C020020DE
:103EB000FEE7FEE7D0ED000A70EEC00AC0ED020A90
:103EC00090ED070A30EE201A80ED071A90ED040AF3
:103ED000D0ED051A20EE200A01EE810A90ED031ABA
:103EE000D0ED061A30EEC11A01EE810A80ED010A0A
:103EF000C0ED030A704770477047FEF7C5BA00006F
:103F000030B593B030216846FCF7D9FA14210CA8DB
:103F1000FCF7D5FA1D480025016841F08051016089
:103F2000006800F0805011901948016841F4804108
:103F300001600068022400F480401190012000908C
:103F4000000401908001CDE9064008AA0420A821C0
:103F500082E813000B906846FEF726FC08B172B6A3
:103F6000FEE70CA90F2081E831004FF4A0500F901C
:103F70004FF48050109005210CA8FEF72BFB002871
:103F800001D072B6FEE713B030BD000040380240E9
:103F9000007000400248016841F470010160704700
:103FA00088ED00E00148FFF771B80000AC00002088
:103FB0000148FFF76BB80000AC0000200148FFF794
:103FC00065B80000AC0000200148FFF75FB80000B2
:103FD000AC0000200148FFF759B80000F4000020B1
:103FE0000148FFF753B800003C0100200148FFF7EB
:103FF0004DB8000084010020F0B50268294C2A4D1C
:104000002A4E2B4F2B4B4FF0804CA04209D06045DD
:1040100007D0A84205D0B04203D0B84201D09842A0
:1040200004D122F0700E4A6842EA0E02A0421BD070
:10403000604519D0A84217D0B04215D0B84213D06D
:10404000984211D01C4DA8420ED01C4DA8420BD056
:104050001B4DA84208D01B4DA84205D01A4DA842BE
:1040600002D01A4DA84203D122F44075CA682A43EF
:104070004D6922F080022A4302608A68C2620A689F
:104080008262A04201D0984201D1096901630121F5
:1040900041610169C90703D0016921F00101016192
:1040A000F0BD000000000140000400400008004096
:1040B000000C004000040140004001400044014069
:1040C0000048014000180040001C00400020004053
:1040D00010B501F01F030121046A99408C4304626A
:1040E000016A9A401143016210BD10B5846842EA2A
:1040F000032224F47F440A432243826010BD826875
:1041000022F070020A4342F007018160704700000C
:10411000F0B5036A026A22F0010202624268846911
:10412000124E24F073050C682C4323F002058B68B3
:104130002B430D4DA84201D0B04205D123F0080712
:10414000CB683B4323F00403A84201D0B04205D121
:104150004D6922F4407215438A692A4342608461A2
:10416000496841630362F0BD000001400004014062
:10417000F0B5026A036A23F010030362436884699E
:104180000D6824F4E64444EA05248D6822F02002F8
:1041900042EA05120F4D104EA84201D0B04206D19E
:1041A000CF6822F0800242EA071222F04002A842C1
:1041B00001D0B04207D14D6923F4406343EA85033F
:1041C0008D6943EA850343608461496881630262C3
:1041D000F0BD00000000014000040140F0B5026A9B
:1041E000036A23F4807303624368C46922F4007293
:1041F00024F073050C68124E2C438D6842EA0522A8
:104200000E4DA84201D0B04206D1CF6822F4006220
:1042100042EA072222F48062A84201D0B04207D1CC
:104220004D6923F4405343EA05138D6943EA0513AE
:104230004360C4614968C1630262F0BD000001408F
:104240000004014030B5046A026A22F4805202621E
:104250004268C3690D6823F4E64343EA05238D6889
:1042600024F4005444EA0534084DA84202D0084D15
:10427000A84204D14D6922F4804242EA851242608C
:10428000C36149680164046230BD00000000014060
:104290000004014010B5036A046A24F001040462BA
:1042A000846924F0F00444EA021423F00A020A4369
:1042B0008461026210BD10B5036A046A24F0100420
:1042C0000462846923F0A00324F4704444EA0232B7
:1042D00043EA01118261016210BD10B5806B0021BB
:1042E000C185C184FFF746F910BD01680C3151E862
:1042F000002F22F4907241E80023002BF5D10168D1
:10430000143151E8002F22F0010241E80023002B74
:10431000F5D1016B012909D101680C3151E8002F59
:1043200022F0100241E80023002BF5D1202180F873
:10433000421000210163704708B590F8421022290D
:1043400001D0022008BD82684FF480539A4201D107
:10435000016921B1816A9A421BD04AB10AE0026820
:10436000816A5268C2F308020A80816A891C08E0E7
:10437000026972B10268526802F07F020A70816AB3
:10438000491C8162C18D491E0904090CC18503D0F5
:104390001BE002685268F1E70168CA6822F0200257
:1043A000CA600168CA6822F48072CA6001684A69FA
:1043B00022F001024A61202180F84210002141636D
:1043C000026B012A03D0FFF7DFFA002008BD01636A
:1043D00001680C3151E8002F22F0100241E800235F
:1043E000002BF5D101680A68D20602D50A6849682F
:1043F0000091818DFFF7BDF8E7E7000070B5044636
:1044000000680169E26821F44051114301612169AA
:10441000A068E26908436169114308432168CA68DA
:1044200049F20C639A430243CA6020684169A26959
:1044300021F440711143416131492068884202D022
:104440003049884202D1FEF76FF901E0FEF75CF9CE
:10445000E2690023192164253226B2F5004F626813
:1044600028D0A0FB0101930F9200FBF71BFF014630
:10447000B0FBF5F06FF01802504301EB800006EB43
:104480000010B0FBF5F000F0F002B1FBF5F002EB2C
:104490000012B1FBF5F06FF01803584301EB8000F8
:1044A00006EB0010B0FBF5F000F00F00216810449F
:1044B000886070BDA0FB010192185B41FBF7F2FE22
:1044C0000146B0FBF5F00201B1FBF5F06FF0180307
:1044D000584301EB800006EBC000B0FBF5F000F0A4
:1044E000F80002EB4002B1FBF5F0584301EB80000D
:1044F00006EBC000B0FBF5F000F00700D6E70000C7
:10450000001001400014014081628285C2850021B3
:104510004164222180F84210016921B10168CA6812
:1045200042F48072CA6001684A6942F001024A613D
:104530000068C16841F02001C160002070472DE98A
:10454000F843984617460D460446089E24E0701C22
:1045500022D0FDF79BFEA0EB0800B0421AD8CEB1E6
:104560002068C168490717D5802D15D0402D13D07C
:104570000168C94309070FD401680025406800900D
:104580002046FFF7B2FE0820606484F84050012006
:10459000BDE8F8830320FBE72068006835EA0000E7
:1045A00004D00020B842D2D00020F1E70120F9E782
:1045B0000148FEF7E1BF0000CC0100200148FEF7F2
:1045C000DBBF0000140200200148FEF7D5BF000049
:1045D0005C020020FEE703B401984100009850EA15
:1045E000C12018BF04204A0D18BF40F0010040F25E
:1045F000FF72B2EB515F08BF40F00200012808BF14
:10460000052002B070470907090E002804DB00F1FD
:10461000E02080F80014704700F00F0000F1E02067
:1046200080F8141D7047000030B52DED048B81B06B
:10463000B0EE408AF0EE608A6A4651EC180B00F04A
:104640002FF900989FED329B7E300090002821DCEE
:1046500053EC192B51EC180B00F0C0FA1AD00021C2
:1046600040F608004FF00000044651EC180B00F033
:10467000C7F908EE100A40F6080004EA00014FF0FE
:104680000000B5EEC08AF1EE10FA04BF0220FCF77C
:104690005FFB2DE00098FF2830DB002108464FF03B
:1046A000000000F4400553EC192B51EC180B00F0FE
:1046B0000BFC8CBF002401240220FCF749FB9FED7A
:1046C000168A4DB1002C0CBF4FF400004FF480004F
:1046D000A84218BF9FED118A042108464FF0000040
:1046E000002C01BFB1EE480A01B0BDEC048B30BD17
:1046F000B0EE480A01B0BDEC048B30BD51EC180B94
:1047000000F07EF901B000EE100ABDEC048B30BD64
:1047100000000000000000000000807FFFFF7F7F9E
:1047200030B540F2FF742DED048BF0EE608A18EE88
:10473000901A85B0B0EE408A9FED2B9B05468DED1B
:10474000008B34EA115147D053EC192B51EC180B64
:1047500000F044FA40D02A4651EC180B00F086FDD8
:1047600041EC180B18EE900A8DED008B34EA1050D6
:104770001CD053EC192B51EC180B00F02FFA2BD155
:104780000220FCF7E5FA00F053F810EE901A18EE4C
:10479000900A8DED020B8DED008B61F31E000390EE
:1047A0009DED020B05B0BDEC048B30BD0220FCF783
:1047B000CFFA00F02DF810EE901A18EE900A8DED59
:1047C000020B8DED008B61F31E0003909DED020B3B
:1047D00005B0BDEC048B30BD05B0B0EE480AF0EE7C
:1047E000680ABDEC048B30BD000000000000000032
:1047F00008B59FED060A0A4601468DED000A684697
:10480000FCF7C4F89DED000A08BD000000000000A0
:104810009FED050B10B553EC102B51EC100B00F075
:1048200055FA41EC100B10BD0000000000000070B4
:104830009FED050B10B553EC102B51EC100B00F055
:1048400045FA41EC100B10BD000000000000001004
:1048500010B5044691ED000BFFF7E6FE84ED000A6B
:1048600010BD10B5044690ED000B0846FFF758FF49
:1048700084ED000B10BD30380A2801D201207047AA
:104880000020704713B50A23012269460248FFF74A
:1048900007F900981CBD0000140200200000000071
:1048A00010B582B01446CDE900010023009A2360C0
:1048B000194B21F0004098422ADA024328D0B0F583
:1048C000801FA8BF226810DA9FED150B53EC102B48
:1048D0009DED000B51EC100B00F0F8F9CDE9000153
:1048E0006FF0350221F0004022600F4B6FF31E5134
:1048F00003EB20501044206041F0FF5040F0005086
:1049000001909DED000B00BF02B051EC100B10BDEB
:104910009DED000BF8E700000000F07F00000000B4
:10492000000000000000504302FCFFFFFDF7B4FD53
:10493000FFF7E6FAFFF706F9FFF776F9FFF7A8F9B0
:10494000FFF7DAF9FFF70CFAFFF75EFAFFF778FAEC
:10495000FFF792FAFFF748F93C210D48FEF74EFBAE
:104960003C210C48FEF74AFB0B48FEF7ABF900214F
:104970000948FEF7E3FC04210748FEF7DFFC07487F
:10498000FEF7DCF9322206490648FEF7EFFFFEE7A4
:10499000F40000203C01002084010020AC00002035
:1049A000A40200201402002010B500290AD00878C3
:1049B000002807D005487844FCF760F9002801D0AA
:1049C000002010BD0248784410BD00002A0A0000F3
:1049D000220A000010B500290AD00878002807D064
:1049E00005487844FCF74AF9002801D0002010BDA2
:1049F0000248784410BD00000E0B0000060B0000BA
:104A000021F00042A2F16052B2F5801F01F0004394
:104A100028BFD2F17F6C0BD95FEA001C43EAC202C7
:104A200042EB507018BF704728BF20F0010070475C
:104A3000B2F5801FBCBF184670474FEA410C1CF509
:104A4000001F02D2084600F0D5BB70B500F0E8F9AF
:104A500000000089FFF7F6BF4FF00040A0F580008E
:104A60007047000010B591EA030F48BF83F0004380
:104A700000F16882841A71EB030C05D2121943EB22
:104A80000C03001B61EB0C01DFF824E14FEA115429
:104A9000A4EB135C1EEA430F18BF9EEA445F73D079
:104AA00023EA0E03DCF1200E21EA045143F48013C3
:104AB00032D322FA0CFE10EB0E0023FA0CFE41EB6F
:104AC0000E01CCF1200E03FA0EFE10EB0E0051F198
:104AD0000001B1F5801FCCF1200E32D201EB045160
:104AE00012FA0EF2BDE8104058BF7047401C38BFA4
:104AF0005FEA420218BF7047002814BF20F001008F
:104B000041F100014FEA410313F5001F38BF704720
:104B1000A1F1C04100F0D2B9012A43EB0302ACF18C
:104B2000200CDCF11F0E32BF4FF0000E23FA0CF305
:104B300010EB030041EB0451B4EB115FD0D0A1EBBB
:104B4000045101F5801149085FEA300001EB04517E
:104B50000ED350F1000038BF12FA0EFE08D1BDE8A6
:104B60001040C9E7401C38BF5FEA4202CAD1C3E720
:104B7000BDE810404FEA410313F5001F38BF7047EE
:104B8000A1F1C04100F09AB99EEA445F08D011EA51
:104B90005E0FBDE8104004BF01F0004100207047E7
:104BA000BDE8104070B500F03BF900BF64FBBE3EAD
:104BB0000000E0FF02494FF0000000F025BB00BFFD
:104BC0000000F87F491058BFC1F140415B1058BF49
:104BD000C3F140438B42EFF30080704751EA030C6E
:104BE00017D41CF5801F58BFBCF5801F00F106804C
:104BF000994218BF704708BF9042704707D711F518
:104C0000801F58BF13F5801F19D4994270478942FD
:104C100070471CF5801F08D5BCF5801FF7D58B4267
:104C200018BF704708BF824270474FF4001C1CEB4E
:104C3000410F38BF1CEB430F01D28B42704770B558
:104C400000F0EEF8922449004FF000514FF08053ED
:104C5000FFF7B8BF51EA030C17D41CF5801F58BFEB
:104C6000BCF5801F00F10680994218BF704708BF4D
:104C70009042704707D711F5801F58BF13F5801F6A
:104C800019D499427047894270471CF5801F08D596
:104C9000BCF5801FF7D58B4218BF704708BF824212
:104CA00070474FF4001C1CEB410F38BF1CEB430F47
:104CB00001D28B42704770B500F0B2F892244900DF
:104CC0004FF000514FF08053FFF77CBFDFF848C131
:104CD00070B51CEA111E1EBF1CEA13159EEA0C0FCC
:104CE00095EA0C0F00F06F8081EA030423EA4C136D
:104CF0004EEAD47E21EA4C1141F4801143F4801332
:104D0000AE44A1FB024CA0FB0365AEF17F7E3619D9
:104D100055EB0C05A1FB034C4CF10003A0FB021C5E
:104D200016EB0C06654153F10003094218BF46F02B
:104D3000010613F4007F0BD14FEA03314FEA05302F
:104D4000340341EA155140EA16506FF003020AE0BD
:104D50004FEAC3214FEAC520F40241EA555140EA27
:104D600056506FF0020202EB2E4201EB025585EA2B
:104D7000CE710AD05FEA440C18BF24F0004450F111
:104D8000000041F1000120EAD47040F2FE7C62454F
:104D900000D270BDA84214BF4FF080444FF0404491
:104DA000002E08BF0024BEF1806FA8BFA1F1C04152
:104DB000BDE8704080F282804FF0000001F1C041F8
:104DC00001F0004170479EEA0C0F0CEA131518BF62
:104DD00095EA0C0F06D04FF0000081EA030E0EF0AA
:104DE000004170BD00F01CF88900013E00F007B8DA
:104DF00000F009B84FEA430C5FEA5C5C08D081EA36
:104E0000030100F05BB84FEA410C5FEA5C5CF6D14D
:104E10004FF00000014970470000FF070000F87FD5
:104E20000EF1020E2EF0030E5EF8046B364205D42E
:104E3000012A43EB030515F5001F12D8012841EBA9
:104E4000010C1CF5001F0CD80ED14FEAD17C15F5D2
:104E5000001F0CEB4C0C0CF1020C08BF4CEBD37C8C
:104E600004E04FF0080C01E04FEAD37C0CEB4C055A
:104E700026FA05F606F00706B6F1040C06D20EEB8C
:104E8000860CBDE870404CF0010C6047DFE80CF088
:104E9000090B02024FF000414FF00000A1F5002184
:104EA00070BD19461046012851EB010418BFD4F516
:104EB000001484BF002001F0004170BD0808A0F577
:104EC00000114FEA3101704753EA010C17D41CF569
:104ED000801F58BFBCF5801F00F106808B4218BFB1
:104EE000704708BF8242704707D713F5801F58BF2D
:104EF00011F5801F19D48B4270479B4270471CF5F7
:104F0000801F08D5BCF5801FF7D5994218BF7047A0
:104F100008BF904270474FF4001C1CEB430F38BF92
:104F20001CEB410F01D2994270470FB40CBC03BC7B
:104F3000FFF7C1BE10B591EA030F48BF83F00043ED
:104F40003FF598AD841A71EB030C07D212198CF05F
:104F5000004C43EB0C03001B61EB0C01DFF8A4E1F8
:104F60004FEA1154A4EB135C1EEA430F18BF9EEAEC
:104F7000445F00F0B08023EA6E03524221EA0451FC
:104F8000C3EB6E0338BF5B1EDCF1200E25D322FA83
:104F90000CFE10EB0E0043FA0CFE41EB0E01CCF1BF
:104FA000200E03FA0EFE10EB0E0051F10001CCF1C1
:104FB000200E29D412FA0EF201EB0451BDE8104084
:104FC00058BF7047401C1CBFB2F1004F704700280B
:104FD0000CBF491C20F00100704712EB020E43EB9E
:104FE000030218BF4FF0010E4EEA4202ACF1200C52
:104FF000DCF11E0E54D943FA0CFE10EB0E0051F1F9
:10500000FF31CCF11E0ED5D50EF1010E12FA0EFEB7
:10501000404141EB010101EB445C5FEA5C5C10D96B
:1050200010EBDE7001EB045138BFBEF1004FBDE85C
:10503000104018BF704700280CBF491C20F0010029
:10504000704730D24FEAD42C11F5001124F40064DB
:105050001BD0B1FA81F20B3AA41AA41ED2F120039C
:10506000914030FA03F31943904001EBCC71002CCE
:1050700001EB0451BDE81040A8BF704701F1C041E9
:105080004FF0000001F000417047B0FA80F310FAD1
:1050900003F100D110BDE41A173C4805C90AE4E742
:1050A00001EB045110BD491001EB0451BDE8104063
:1050B0004FEA300002E04FF0000170474A0008BF9D
:1050C0000042F8D0B2F5001F28BF704701F0004140
:1050D0004FF0000070479EEA445F07D011EA5E0F70
:1050E000BDE8104004BF002100207047BDE810401B
:1050F00070B5FFF795FE00BF40DFF63E83F000413C
:10510000104670470000E0FF43004FEAD30C4FEA1F
:105110003C0C43401FBF40070CF1605113F0FE4FA1
:1051200070471CF0006F03D100200CF00041704765
:105130000CF0004343EA507010B540EACC0000F098
:105140000EF800BF000000924FEA0001FFF7B6BE64
:105150004FF000414FF00000A1F5002170470EF123
:10516000020E2EF0030E5EF8044B244204D44FEAE4
:105170004102B2F17F4F11D84FEA4003B3F17F4FA4
:105180000CD80ED14FEAD07CB2F17F4F0CEB4C0C17
:105190000CF1020C08BF4CEBD17C04E04FF0080C82
:1051A00001E04FEAD17C0CEB4C0324FA03F404F049
:1051B0000704B4F1040C06D20EEB840CBDE81040D9
:1051C0004CF0010C6047DFE80CF0070802024FF0DA
:1051D0000040A0F5800010BD0846420018BFD2F183
:1051E000807288BF00F0004010BD4FF04070E1EECB
:1051F000100A7047FF2141EAD050C00570474FF0B8
:1052000000007047FBF763BA0CF00F03092B08BFCF
:10521000082000F05F800A2B0BD0082B18BF7047C6
:1052200008BF1CF0400F0AD04FF000004FF0000103
:1052300070471CF0400F18BF4FF0004070471CF043
:10524000100F08D020F0704300F07F4242EAD301F3
:105250004FEA4370704700F0604021F07F4242EA1D
:10526000000201F07F4040EA727070474FF0FF0C7F
:105270004CF4E06C1CEA11531CBF9CEA030C9445EF
:10528000C2BFDA4201EB02517047002B0DD0BCF1D6
:10529000000F0FD0002A01F00041A4BF41F0E0410F
:1052A00041F07F614FF00000704701F000414FF086
:1052B0000000704750EA01334FF09B0C18BF4CF0D0
:1052C000806C7FF477AC7047FBF7A4BEFCF700B8A6
:1052D000FCF78EB91CF4801F11D01CF4E02F03D012
:1052E0006FEACC31490070474FF04050EFF3008235
:1052F00022F0704242EA000282F3008870474FF0C9
:1053000000007047000000000000000001020304DC
:105310000607080900000000010203040240000023
:10532000000000A00000000005400000000000C8D0
:10533000000000000C4000000000409C0000000045
:10534000194000000020BCBE0000000034400000F6
:10535000BFC91B8E00000004B5400000504BCFD0E9
:105360006607E2CF010000006C4100003E8251AAB6
:10537000DFEEA73401000000D9420000DCB5A0E256
:105380003A301F97FFFFFFFFB4450000FD25A0C87E
:10539000E9A3C14FFFFFFFFFFF3F000000000080B7
:1053A00000000000FF3F000000000080000000003F
:1053B0000C5500080000002058000000C40100083F
:1053C0006455000858000020E0080000E0010008D3
:1053D000000000000000F07FFFFFFFFFFFFFEF7FF6
:1053E0001001000043000000F8FFFFFF00404040B4
:1053F00040404040404041414141414040404040A8
:105400004040404040404040404040404005020253
:105410000202020202020202020202020220202012
:10542000202020202020200202020202020290906E
:10543000909090901010101010101010101010106C
:1054400010101010101010100202020202028888C0
:1054500088888888080808080808080808080808CC
:1054600008080808080808080202020240000000B4
:10547000000000000000000000000000000000002C
:10548000000000000000000000000000000000001C
:10549000000000000000000000000000000000000C
:1054A00000000000000000000000000000000000FC
:1054B00000000000000000000000000000000000EC
:1054C00000000000000000000000000000000000DC
:1054D00000000000000000000000000000000000CC
:1054E00000000000000000000000000000000000BC
:1054F0001C00000043000000F8FFFFFF0C0000004C
:105500000E0000000F0000002E0000000000000050
:10551000000000000000000000000000000000008B
:105520000000000000000000000000000000F04249
:1055300000000000000000000000000000007A43AE
:1055400000002041000000000000000000000000FA
:105550000100000010000000000000000024F40022
:045560000000000047
:040000050800018965
:00000001FF
